:020000021000EC
:10200000C80A0020D13101006D0303006D030300F5
:10201000E91603006D0303006D0303006D03030065
:102020006D0303006D0303006D0303006D030300E4
:102030006D03030044E103008B1703006D030300ED
:102040006D0303006D0303006D0303006D030300C4
:102050006D0303006D0303006D0303006D030300B4
:102060006D0303006D0303006D0303006D030300A4
:10207000158D01006D0303006D030300B52C0100F5
:10208000BD0203006D0303006D0303006D03030035
:102090006D030300D53901006D0303006D030300D8
:1020A0006D0303005D250100C93501006D030300C8
:1020B0006D030300D5A402006D03030029AF0200E5
:1020C0000F9A03000B9A030009A70200259A030048
:1020D000139A0300F9AE0200179A030069AF0200D9
:1020E0007D85020041870200D9AF02006D03030025
:1020F0006D0303006D0303006D0303006D03030014
:102100006D0303006D0303006D0303006D03030003
:102110006D0303006D0303006D0303006D030300F3
:102120006D0303006D0303006D0303006D030300E3
:102130006D0303006D0303006D0303006D030300D3
:1021400082B030BF074BD3F8F030DB0704D5002353
:102150000193019B052B01DD02B07047019B013308
:10216000F6E700BF00ED00E0F0B5114A114C124E49
:1021700000F00105E3695F0713D40DB9334213D1B1
:1021800003EA00078F4207D10B4A1A40002A0CBF0E
:1021900000206FF00100F0BD013AEBD16FF00200BA
:1021A000F9E74FF0FF30F6E76FF00100F3E700BF0B
:1021B0008096980000000350020001000B4B70B5A0
:1021C000D96911F480310DD101244FF48072084E89
:1021D000084DF46020462C641A61FFF7C5FF346493
:1021E000EC6070BD6FF00100FBE700BF0000035022
:1021F00000100350002003504FF4003238B50F4B4D
:102200000F4C9A6641F671330122E569E3630D4B89
:102210000021DA60022360612120236105F480350A
:10222000FFF7A2FF10B92120FFF79EFF0122064B06
:10223000DA600DB10023E36338BD00BF00900050A9
:1022400000000350001003500020035070B5134CE1
:102250006061E3695B071ED40E4656F8043B8D1897
:10226000A361AE420BD10423002121202361FFF79B
:102270007BFF58B9BDE870402120FFF775BF0821EA
:102280000846FFF771FF10B10423236170BD56F8B3
:10229000043BA361E5E74FF0FF30F7E70000035090
:1022A0002DE9F84315464FF40032184B89469A66DB
:1022B00041F6713203F51C33DF69DA630122064609
:1022C00003F58053DFF84C8007F48037DA6055B9A6
:1022D000284601220E4BDA601FB10022A3F50053FD
:1022E000DA63BDE8F88306F5005404EA0804A41B89
:1022F000AC4228BF2C46494622463046FFF7A6FF8F
:102300000028E6D12644A1442D1BE0E700900050B0
:102310000020035000E0FFFF00000000000000006C
:10232000002370B5424C05468AB0E36318B10088BB
:1023300023600DF0DDFA0DF085FC3E4826F08FFCA1
:102340003D4E3E4B304633603D4B736023F03DFCC9
:102350000021304612F09AF833A3D3E90023A0629B
:10236000C4E9062323F03CFCD4E9062319431043B7
:10237000C4E90601CDE900014FF0FF334FF0FF3211
:10238000A06A26F013FD02224FF0FF31A06A26F06A
:1023900012FD01200DF030F84FF40073002229499E
:1023A000A06A26F00CFEB0F5007F39D100239422FC
:1023B000079309933C23CDE90332059396230693B3
:1023C0005023A06A03A9089312F074F935B3287C4E
:1023D0000DF04AFC0546F0B9A06A26F0E5FE0DF0C6
:1023E000D1FC0CF0EBFF20B14FF48070002109F01C
:1023F00045FF0CF0F3FF20B14FF40060002109F01D
:102400003DFF23F0B8FC012026F0FDFB0E4A0F49EA
:10241000A06A23F0D8FB28460AB070BDFF20D7E79A
:102420000725F8E7AFF300800DD501552000000027
:10243000380B0020690345EC101E002031F201002A
:10244000201E0020101C00206F5B0300AF5B030008
:102450000348044B834202D0034B03B11847704733
:102460006C2C00206C2C002000000000064B07495B
:10247000C91A891048BF0131491003D0044B0BB170
:1024800001481847704700BF6C2C00206C2C0020BE
:102490000000000010B5064C237843B9FFF7D8FFC1
:1024A000044B13B10448AFF300800123237010BD27
:1024B000BE260020000000003828040008B5054BA7
:1024C0001BB105490548AFF30080BDE80840FFF7A0
:1024D000CDBF00BF00000000B00D00203828040070
:1024E000A3F5803A704700BF174B002B08BF134B72
:1024F0009D46FFF7F5FF00218B460F461348144A0F
:10250000121A27F030FB0E4B002B00D098470D4BD2
:10251000002B00D098470020002104000D000D483A
:10252000002802D00C48AFF3008019F023F92000F6
:1025300029001DF050FE18F063FF00BF00000800E6
:102540000000000000000000C80A0020C80A0020A7
:102550000028002000000000000000000F4B07B51D
:10256000D3F820140E4A1D20C2F820145B6F0122FC
:10257000C3F3C0138DF8073000210DF107030EF0EF
:10258000EBFC084B1B782BB101211D200DF107023C
:102590000EF010FD03B05DF804FB00BF00C0035057
:1025A00000E00350BF2600207FB50368AD4A23F446
:1025B0007F4323F00703934200F0D18009D8AA4A51
:1025C00093421FD002F51022934200F01F8104B005
:1025D00070BDA64A9342FAD1B0F805301D2BF6D152
:1025E0000389A34E13F00104A24D00F030811DF0C9
:1025F0006EFE1DF06DFEA04930681EF04DFD0123FA
:102600002B70E4E79D4E304611F060FB054618B391
:10261000974C9B4920681EF03FFD9A4920681EF0A8
:102620003BFD1DF054FE1DF053FE974B974A00935F
:102630009749722320681EF02FFD96492B46964A33
:1026400020681EF029FD284600F048FC93492068C8
:102650001EF022FD00BEFDE70221307811F070FB74
:10266000044618B3824D864928681EF015FD854939
:1026700028681EF011FD1DF02AFE1DF029FE824B78
:10268000824A00938249772328681EF005FD81491C
:102690002346814A28681EF0FFFC204600F01EFCFD
:1026A0007E4928681EF0F8FC00BEFDE7A0220090DD
:1026B00003461146307811F021FB054618B36C4CE7
:1026C0006F4920681EF0E8FC6E4920681EF0E4FCAB
:1026D0001DF0FDFD1DF0FCFD6B4B6C4A00936C4939
:1026E000802320681EF0D8FC6A492B466A4A20687D
:1026F0001EF0D2FC284600F0F1FB684920681EF06D
:10270000CBFC00BEFDE70221307811F02DFB054621
:1027100000283FF45CAF564C594920681EF0BCFCC1
:10272000584920681EF0B8FC1DF0D1FD1DF0D0FD09
:10273000554B564A00935649842320681EF0ACFC42
:1027400054492B46544A20681EF0A6FC284600F047
:10275000C5FB524920681EF09FFC00BEFDE7474CB8
:102760000221207811F0ECFA054618B3404C444998
:1027700020681EF091FC434920681EF08DFC1DF07E
:10278000A6FD1DF0A5FD404B404A00934049922311
:1027900020681EF081FC3F492B463F4A20681EF00E
:1027A0007BFC284600F09AFB3C4920681EF074FC34
:1027B00000BEFDE70221207811F0D6FA0546002878
:1027C0003FF405AF2A4C2E4920681EF065FC2D49C8
:1027D00020681EF061FC1DF07AFD1DF079FD2A4B8A
:1027E0002A4A00932A49972320681EF055FC29495C
:1027F0002B46294A20681EF04FFC284600F06EFB4D
:10280000264920681EF048FC00BEFDE7B0F8050030
:102810001B287FF4DCAE0DF10B0301220093002195
:1028200003AB0EF067FB10231D4A13619DF80B20CC
:102830000AB91C4A13611DF04AFD1DF049FD0C4BFD
:102840009DF80B20184918681EF026FCBFE61DF005
:102850003EFD1DF03DFD154930681EF01DFC2C703D
:10286000B5E600BFA0000601A0000100A0000A0319
:102870009C0E0020BF260020FEDC0300422C00201E
:102880002FDD0300B0DC030067DD0300B5DC0300CF
:10289000BEDC0300CDDC0300CADC0300E2DC030085
:1028A00000D0035000E00350F3DC030031DD0300EF
:1028B0000022014B1A8070478426002030B503683F
:1028C0007E4A23F47F4323F00703934289B040F00C
:1028D000F380082200211220794B0EF03DFB0446C4
:1028E00018B3784D784928681EF0D6FB77492868D8
:1028F0001EF0D2FB1DF0EBFC1DF0EAFC744B754A98
:10290000009375495C2328681EF0C6FB7349234673
:10291000734A28681EF0C0FB204600F0DFFA7149B8
:1029200028681EF0B9FB00BEFDE701460322142013
:102930006D4B0EF011FB044618B3624D62492868D6
:102940001EF0AAFB614928681EF0A6FB1DF0BFFC23
:102950001DF0BEFC5E4B5F4A00935F496A23286806
:102960001EF09AFB5D4923465D4A28681EF094FBE1
:10297000204600F0B3FA5B4928681EF08DFB00BECC
:10298000FDE7014605221620584B0EF0E5FA0546F4
:1029900018B34C4C4C4920681EF07EFB4B49206814
:1029A0001EF07AFB1DF093FC1DF092FC484B494A47
:1029B00000934949782320681EF06EFB47492B4657
:1029C000474A20681EF068FB284600F087FA454910
:1029D00020681EF061FB00BEFDE70DF10F0104A8A9
:1029E00011F0E8F9044618B3364D374928681EF04F
:1029F00053FB364928681EF04FFB1DF068FC1DF0A4
:102A000067FC334B334A00933349832328681EF015
:102A100043FB32492346324A28681EF03DFB2046DC
:102A200000F05CFA2F4928681EF036FB00BEFDE777
:102A3000BDF8143001465BBAADF818309DF813307C
:102A400008228DF81A30FF238DF81B30FE238DF8F5
:102A50001C309DF8123018208DF81D30BDF8103054
:102A60005BBAADF81E3006AB0EF076FA054618B329
:102A7000144C154920681EF00FFB144920681EF005
:102A80000BFB1DF024FC1DF023FC114B114A00939D
:102A90001149932320681EF0FFFA10492B46104A73
:102AA00020681EF0F9FA284600F018FA0D4920684F
:102AB0001EF0F2FA00BEFDE709B030BDA000010033
:102AC00076DD03009C0E00202FDD0300B0DC030048
:102AD000B1DD03007FDD0300BEDC0300CDDC0300BD
:102AE000CADC0300E2DC0300A7DD0300ABDD03006A
:102AF00008B503F0D5FD01280ED1124B04205A6E03
:102B00004FF480231049520358BF104A4B6601F519
:102B10001041086258BF536605F08CF800F030FB96
:102B20001EF069FA05F062F81EF059FA05F066FB2E
:102B300000F01CFB00F0DCFB02F030FABDE80840BE
:102B400005F0EABE008000500090005000A0005048
:102B5000064B1B681A7A022A04D812B11B68044A71
:102B600013607047032AF9D0704700BFEC2900209A
:102B7000C80D002030B5224D95B00DAC0FCD0FC45F
:102B800095E80700032384E807008DF84D302923DA
:102B90001C4A1D49CDE902231C4B0E22CDE904132A
:102BA0004FF4807300210DF12600069326F0DBFF21
:102BB0004FF4A020164B07A9CDE907030F238DF88A
:102BC000243010238DF82530124B0DAA0A932023B0
:102BD0000B9301238DF831300F4B1048009302AB5B
:102BE00005F04EFA04469DF832304FF4E130002BE8
:102BF0000CBF032100211DF0AAFB204615B030BDFB
:102C0000A4E00300000006500005000600080007CD
:102C100024000650C0260020CC0D0020380E0020D5
:102C2000831E012B10B50C4619D801290DD8184B5D
:102C300004221B6905210020C3F3401303F06CFB41
:102C400024B1144B18680368F3B910BD114B186810
:102C50000368002BF9D0BDE8104005F0CFB98B1EFA
:102C6000012B0CD80128F0D8BDE810400022084BF9
:102C700005211B691046C3F3401303F04DBB002927
:102C8000E4D00129DDD0E0E7BDE810401EF022BC11
:102C900000C00350002A002008B50449044805F08C
:102CA00023FEBDE80840FFF765BF00BF042A0020EF
:102CB0005C0E002001481EF087BC00BF380E0020CB
:102CC000014B1A6A18681047380E0020044B8342E3
:102CD00005D1044B1B7813B1C8B211F059B8704735
:102CE000640E0020E026002030B5002503685A4A13
:102CF00023F47F4323F0070385B0934204460295F3
:102D0000ADF80C5000F0818002F5802293420ED085
:102D1000A2F18272934240F09C80504B1B78002BB2
:102D200000F0978005B0BDE830401EF021BDB0F83E
:102D30000530212B40F08D80FF2304A91A4611E9AC
:102D400003001DF0BDFA012814BF41F2FC15434BEE
:102D500005F0FC0208BF1870212120790EF012F94D
:102D6000054618B33E4C3F4920681EF095F93E4990
:102D700020681EF091F91DF0AAFA1DF0A9FA3B4B4C
:102D80003B4A00933B49592320681EF085F93A4994
:102D90002B463A4A20681EF07FF9284600F09EF83C
:102DA000374920681EF078F900BEFDE735490090EC
:102DB0002379354A0968354800F0ECF805460028C3
:102DC00047D0274C274920681EF066F9264920681D
:102DD0001EF062F91DF07BFA1DF07AFA234B244AAB
:102DE00000932449622320681EF056F922492B469D
:102DF000224A20681EF050F9284600F06FF820495A
:102E000020681EF049F900BEFDE7B0F80530B7EEC6
:102E1000047A07EE903AF8EE677AB0F8073067EE7A
:102E2000877A013307EE103AB8EEC77A67EE877AF1
:102E3000B1EE047A67EE877AFAFE677AFCEEE77AFB
:102E400017EE903AB3F57A7F38BF4FF47A730D4A94
:102E5000136005B030BD00BFA0000602E0260020D0
:102E60009C0E00202FDD0300B0DC03001BE10300FB
:102E7000C0E00300BEDC0300CDDC0300CADC0300BD
:102E8000E2DC03000C2A0020CD2C0100640E00209F
:102E9000012208B5074B1A700022074B1A70042252
:102EA000064B1A701F22064B1A7004F025FF054BC3
:102EB000186008BD452C0020E1260020442C00208D
:102EC000432C00209C0E0020024B034918681EF082
:102ED000E3B800BF9C0E00203BE1030070B50C4C32
:102EE0000C49064620681EF0D7F804F005FF054699
:102EF000206804F0F5FE3046FFF7E6FF284604F0B0
:102F0000EFFE20680449BDE870401EF0C5B800BF60
:102F10009C0E00203DE103003FE1030038B505466B
:102F20002AF0B0FC00230B4A14685CB1AC4206D115
:102F3000A96A6BB199622AF0A0FC012007E0234640
:102F4000A46AF2E7002DF3D02AF097FC204638BDA2
:102F50001160F0E7A00E002010B50446B0B12AF0D1
:102F6000F9F92046FFF7DAFF10B194F82C300BB9CD
:102F7000002010BD064C2368002BF9D02AF082FCFB
:102F80002368013B23602AF078FCF1E72220F0E778
:102F9000A40E00202DE9F04385B0054691469846E1
:102FA0000E469DF8307009B9002F5CD12846FFF716
:102FB000D3FF0446002836D185F82C00686305F05D
:102FC00063FE864233D92AF059FA2146844640F2FC
:102FD000E7304FF47A720023E6FB0C0118F080F81A
:102FE0004FF0FF32002318F07BF82B46E88611469D
:102FF0002846CDE900441D4A2AF0E0FD044690B978
:10300000C5E9089885F82D702E632AF03BFC184A14
:10301000136833B31A469B6A002BFBD195620023D9
:10302000AB622AF02AFC204605B0BDE8F08347B128
:103030002B4631462846CDE900440C4A2AF070FA66
:10304000DCE7304603A92AF01FFA04460028EAD13B
:103050002B462846CDE90077044A03992AF08AFDD9
:10306000CCE71560DBE72124DDE700BF7530010008
:10307000A00E002091F82C3013B50C4683B98B8E2E
:10308000CA8E93420ED243B9CDE9003320460B4697
:10309000124A4FF0FF312AF051FDA38E0133A3866F
:1030A00002B010BD52B191F82D3093B101230093BD
:1030B000D1E908232046096BFFF76CFF012384F850
:1030C0002C30074B1A6801321EBF1A6801321A6091
:1030D000E6E708462AF03EF9F0E700BF7530010048
:1030E000A40E00202DE9F041154E336833B34FF0A4
:1030F0000008144F2AF0C6FB05463C6824B9284650
:10310000BDE8F0412AF0B9BB94F82C30A3B1336884
:1031100084F82C8013B13368013B336094F82D3070
:1031200013B92046FFF7FAFE28462AF0A6FBD4E999
:10313000083120469847DDE7A46ADFE7BDE8F08163
:10314000A40E0020A00E0020034B1B68002B14BF10
:1031500004200120704700BFA40E0020024B186815
:10316000B0FA80F040097047A40E002008B503486B
:103170001DF03CFFBDE808401DF063B848E20300C5
:1031800001481DF033BF00BF48E2030007B5082027
:103190001DF001F902238DF80030054B68460193BC
:1031A0001DF099F8082003B05DF804EB1DF0FEB89F
:1031B000006A18100348044A0449121A92101DF0BC
:1031C000D6B800BF402101002023010000280020C4
:1031D00008B500F02FF8FFF7EDFF124B12498B42B4
:1031E00012D30020114B12498B4218D3FFF77CF900
:1031F000186850F82240586840F822400132986818
:103200008242F5D30C33EAE70022F8E71C6844F861
:10321000220001325C68A242F8D30833E4E70022BE
:10322000F8E700BF402804004C2804004C280400A4
:103230004C2804004FF40041134B144A70B59A60B7
:10324000D3F88820124D42F47002C3F88820114A46
:1032500005F5005491664FF0FF3222664FF6DF729B
:1032600062660222C3F8D020BFF34F8FBFF36F8F87
:103270004FF44036032004F025FD0320E66004F0FF
:1032800005FD2E6170BD00BF00ED00E000200100D3
:103290000080004400900050014B1860704700BF50
:1032A000142A0020054B1860054B1B6F03F0070321
:1032B000032B01D129F0CEB9704700BF1C2A002092
:1032C0000080005000239B6AB3F5903F03D2196839
:1032D000064A914203D000230370836070470122A5
:1032E00002709A689B694260F7E700BF07B0CD5E45
:1032F00000239B6A10B5B3F5903F11D219680A4AB2
:1033000091420DD1094C227812F0FD0F01D000201E
:1033100010BDDB6998470028FAD101232370F6E736
:103320004FF48170F4E700BF07B0CD5EE2260020C5
:10333000024B034A1A601DF060BE00BF000000206F
:1033400002020FF0BFF34F8F0549064BCA6802F423
:10335000E0621343CB60BFF34F8F00BFFDE700BFB8
:1033600000ED00E00400FA05002307B529480193A9
:103370001DF03CFE4FF44073012204216846ADF875
:10338000003000F095F80122234B0520C3F84424B7
:1033900001A92AF053FB002839D1204BD3F8F020A3
:1033A00042F00102C3F8F020D3F8FC2042F0807212
:1033B000C3F8FC201A4AA3F55D431A60019B194A21
:1033C00003F5D52303F2FC43B3FBF2F3164A013BAA
:1033D00013610223C2F8F0304FF48073C2F8043353
:1033E0004FF06043114AC3F8B02F114AC3F8802E42
:1033F000D3F8002E42F48072C3F8002EFF2283F827
:103400002020D3F8002E22F48072C3F8002E03B0DF
:103410005DF804FB48E2030000D0035000ED00E03B
:10342000FF030040F8590D00000004E055CEACC584
:10343000090001004FF06043D3F8802E30B5D20769
:1034400015D501240B4D8440D5F8FC2042F0807244
:10345000C5F8FC20D3F8002E2243C3F8002E53F801
:103460002020002AF0D003F82010002030BD1120C9
:10347000FCE700BF00ED00E008B50C481DF0B6FD0C
:10348000192004F011FC28B1192004F01BFC1920AC
:1034900004F0FCFB1A2004F007FC28B11A2004F009
:1034A00011FC1A2004F0F2FB002008BD48E20300E2
:1034B0002DE9F0410E461746054610B30F2922D8D4
:1034C0000378DBB1013BDBB2022B1CD8104AD35C82
:1034D0006A78D340DB0716D50E4BD3F81043A4B956
:1034E0002AF0D0F980463A462846314603F0CEF914
:1034F00040462AF0C2F92046BDE8F08140F2FF13B1
:10350000E6E72224F7E72124F5E70224F3E700BFEA
:1035100094E1030000C0035010B5044608B30378DB
:10352000E3B1013BDBB2022B1DD8104AD35C6278B9
:10353000D340DB0717D52AF0A5F90122617823785B
:103540008A4030214B4341F2100103F1A04303F5BF
:1035500070335A502AF091F9002010BD40F2FF1349
:10356000E5E72220F9E72120F7E700BF94E1030017
:1035700010B5044608B30378E3B1013BDBB2022B7C
:103580001DD8104AD35C6278D340DB0717D52AF0E8
:1035900079F90122617823788A4030214B4342F245
:1035A000100103F1A04303F570335A502AF065F976
:1035B000002010BD40F2FF13E5E72220F9E72120AB
:1035C000F7E700BF94E10300F8B503F055F90C25C7
:1035D0000127164B00F0553424F05024144EC3F844
:1035E00020440CB314F001000BD0002024F001049F
:1035F00005FB00635A68002AF3D09968C0B290476F
:10360000EFE72346013020284FEA530301D0DA07C1
:10361000F8D507FA00F30F2824EA0304E8D9103894
:1036200005FB0063B433E5E7F8BD00BF00E00350DD
:10363000A80E00202DE9F04F9A46564B85B01B7816
:1036400006460F461546DDF83C909DF844B0DDF87F
:103650005080002B00F09780072A00F296800E9B86
:10366000002B00F09280B9F1000F00F08E80129BC9
:10367000B3F5006F00F38980012803D1109B002B64
:1036800000F08380444B03EB05131B7B002B7ED0A3
:10369000424C10220021684626F065FA04EB4514DE
:1036A0001022A7BB3946204626F05DFA43F21003EC
:1036B0006380BBF1000F03D1E37843F00303E370B1
:1036C000364A0E9B02EB451CCCE90193129B690123
:1036D000581E9DF84C30C0F30A0003F003039B060C
:1036E00043EA001E53582E48012E00EA03004EEA1A
:1036F0000003CDF800A0535017D0B8F1000F2ED121
:103700009CF8023068F304138CF8023027E00021A3
:10371000204626F028FA4FF444736380BBF1000F73
:10372000CED1E37843F03003C9E713230CF1100E38
:10373000CCF80C309CE80F008EE80F006FF003010E
:10374000DCF81C20109B61F39F02012FCCF81C2099
:10375000CCF8143003D1CCF81890CCF80430002702
:103760000D4A290102EB051342F80180159A2846FB
:103770005A60694622469F605E7302F061FE3846D9
:1037800005B0BDE8F08F0748FAE70748F8E70748B3
:10379000F6E700BFE32600201011002010100020E3
:1037A0000F80FFF3028000F0018000F0078000F03E
:1037B00038B5124B05461B78DBB1E0B12AF062F850
:1037C0000F4A00231146147B54B92B6001251A01BE
:1037D00001EB03131D738C502AF04FF8204638BDBF
:1037E0000133082B02F11002EDD12AF046F805480A
:1037F000F5E70548F3E70548F1E700BFE3260020B9
:1038000010110020048000F0028000F0018000F020
:1038100038B52AF037F8002305460B4A147B6CB9FB
:103820000133082B02F11002F8D102F0B5FD074B6D
:1038300028461C702AF021F8204603E028462AF08A
:103840001CF8034838BD00BF10110020E3260020FB
:10385000058000F00D4B10B51B78044693B1072886
:1038600012D82AF00FF80A4B03EB04131A7B2AB183
:1038700000241C732AF001F8204610BD29F0FDFF3A
:103880000448FAE70448F8E70448F6E7E32600208E
:1038900010110020068000F0028000F0018000F08E
:1038A000154B13B51868002301908DF8043029F0EA
:1038B000E9FF124B1C7824B129F0DFFF104802B059
:1038C00010BD01221A7029F0D8FF0E4B01A81C73FD
:1038D0001C7783F82C4083F83C4083F84C4083F8F5
:1038E0005C4083F86C4083F87C4008238DF80730F7
:1038F00002F076FD2046E2E797E10300E326002090
:10390000038000F010110020F8B50D4D2D7885B121
:10391000072810DC0B4D060105EB0014277B67B16F
:10392000AB510025069BA560636002F089FD284627
:10393000F8BD0548FCE70548FAE70548F8E700BF89
:10394000E326002010110020028000F0018000F02A
:10395000078000F00A4A08B512785AB107280BD838
:10396000084A02EB00131B7B43B1002102F02AFD41
:10397000002008BD0448FCE70448FAE70448F8E7DB
:10398000E326002010110020028000F0018000F0EA
:10399000078000F00A4A08B512785AB107280BD8F8
:1039A000084A02EB00131B7B43B1012102F00AFD20
:1039B000002008BD0448FCE70448FAE70448F8E79B
:1039C000E326002010110020028000F0018000F0AA
:1039D000078000F0184B2DE9F0411F6D5B6D1F4013
:1039E00000D5FEE701260025144CDFF85880374249
:1039F00018D02368C8F85060A3B1A16828460131E7
:103A00006268A1609847637B012B0BD150B90C4BC6
:103A100003EB45131A7B60F341021A731A7F60F3BC
:103A200041021A770135082D4FEA460604F11004C9
:103A3000DDD1BDE8F08100BF00000450101100206E
:103A400010100020002004502DE9F04F14460646C7
:103A50000D469B46C36B87B001225B6902A9606873
:103A60009847F36B01225B6903A92846984702A88F
:103A70001DF0B7F8074648B10023A37563754FF0F2
:103A8000FF33A360002007B0BDE8F08F03A81DF04E
:103A9000B5F80123A375237E04EBC303DD611F8406
:103AA0006368AB420ED1206003A81DF0C9F84FF047
:103AB000FF332075A360237D043B022B26D800230F
:103AC000A375DFE723681A1A53425341A37503A86D
:103AD0001DF0B6F8237D834218BFA77503A81DF01B
:103AE00091F8074602A81DF08DF8874218BF002301
:103AF00003A818BFA3751DF08DF8074602A81DF096
:103B000089F887421CBF0023A375D4E703A81DF0E2
:103B100079F880B1F36B022228465B6904A99847C3
:103B200004A81DF07EF80346207D032839D8DFE87D
:103B300000F03838040903A8F3E7CC22237E04EB15
:103B4000C3031A8401F0A2FA109B187003A8277E01
:103B50001DF04CF804EBC70787F82200237E03A86A
:103B600004EBC303B3F8209093F822701DF04AF8D9
:103B7000804603A81DF04EF88246B8F1000F15D01C
:103B8000F36B022228465B6904A9984704A81DF03C
:103B90000DF86075637D6BB90023A3754FF00008C5
:103BA00038E0227E04EBC2021384CBE703A81CF0AA
:103BB000E8FFEEE794F81680B8F1000FEED0B9F107
:103BC000000F09D1DFB10123627EE375002A44D1E1
:103BD0009F4218D1677614E0736C05EB0A025942D4
:103BE00085EA020008421CBF0021A175591E0A4047
:103BF0009B1A9945D0D8A37D002BE3D1CEE7E37D76
:103C000043B94FF000084B465246294630461CF057
:103C100026FDA060A27D12B123694B4423611449A3
:103C2000237E097899421ED901332376BBF1000F18
:103C30001BD0D2B1E37DC3B1B8F1000F15D1032F72
:103C400013D0A1684B1C10D0109B22460093304625
:103C50000123FFF7F9FEA07507E0012FDAD0032F4B
:103C600008BFA376CDE70023A375A07D0BE700BFB7
:103C7000BCE103002DE9F04F0E46984600238BB0BF
:103C800004464FF0FF31104617468DF8133001F00F
:103C9000E7F9B6F5801F3BD3B21C53D1E56A6B1C24
:103CA00057D12046616A1CF020FC0546B31C18BFA2
:103CB0000123DFF810910193636A626C0293236819
:103CC00005A902FB053AE36B05225B69504698475C
:103CD00005A81DF021F81DF044F850461DF04CF8E1
:103CE0004FF0000B824601464B1C05D0636C81EA05
:103CF0000A025B42134232D0294620461CF0F5FBF3
:103D0000029BAB424DD0BBF1000F4DD10546D3E72E
:103D1000314605AA04F108001CF0B1FE0146481C1A
:103D200010D0384601F09CF90122394620460DF1A9
:103D300013031CF0E6FC28B19DF8133088F800301E
:103D4000002003E0237C002BA8D12D200BB0BDE880
:103D5000F08F2368ED1A636CB5FBF3F5A6E74846D0
:103D600001F07EF90DF1130349462046019A1CF03B
:103D7000C8FC034690B1B21C03D0D9F80020B2426F
:103D80000CD19DF8132003930D4B88F80020494671
:103D90001A68384625F0F2FE039B9B46D9F80810B6
:103DA000A2E7BBF1000FD0D0B6F5801FC8D23146D4
:103DB00098F800307A6804F1080001F07FF8BFE756
:103DC000B8E10300041800202DE9F341044617462A
:103DD00098460E46194D816AE36A8B422AD04B1CE5
:103DE00018E0284601F03CF90122294620460DF151
:103DF00007031CF086FC30B14346294620469DF857
:103E00000720B847B0B1A9684A1C05D0012E0AD0D6
:103E1000E36A9942E5D10DE0696820461CF0F2FBA7
:103E2000012E0146D8D16B6881EA0302636C5B42C4
:103E30001A42D1D002B0BDE8F08100BFD8170020EF
:103E40002DE9F041036B9046826B07689A4288BF68
:103E50008363426C436A90B002FB0377C36B0E46E8
:103E6000052201A95B6904463846984701A81CF061
:103E700053FF01280146307057D0656CE26B236810
:103E8000606AD2F814C005FB0030052206A9E0479D
:103E900006A81CF041FF01284FF0000523D0D4E90B
:103EA0000A3201219342CDE90B458DF834800E95FD
:103EB0008DF83C102AD1194620461CF0A3FB236B39
:103EC000626C14339B1AE06223630C9B53B99DF818
:103ED0003C303BB1626A616C2368E06B01FB0231EC
:103EE0001CF0D2FE0C9DE36B05225B6901A93846EC
:103EF000984701A81CF010FF30702846236BA26B76
:103F00009A4288BFA36310B0BDE8F081237C33B927
:103F10001C490BAA04F1080001F01EF8D5E7204661
:103F2000194A0BABFFF750FFCFE7237C23BB224698
:103F3000164904F1080001F00FF8616A20461CF0F0
:103F4000F5FA616A421C20461CF0BEFA054620B90B
:103F5000236B626C1344143B23632046A16A1CF05C
:103F600051FB2368A062C01A636CB0FBF3F060627F
:103F700020461CF08AFBB6E700232046044AFFF7E0
:103F800023FFDAE755470100D14601008B07030004
:103F90002707030073B50D46D11E4A421C461B7EFF
:103FA0004A419A4226D129682368994222D36368FC
:103FB00099421FD8114E0DF107033246FFF75AFE02
:103FC000C0B972686B689A4214D19DF80730DA1E46
:103FD00053425341227E93420CD1636901336361A2
:103FE000D4E90323934205D22968A26842F823103A
:103FF00001332361012002B070BD00BF30180020E2
:104000002DE9F04F9A468BB09DF85030DFF850B153
:104010000293DBF81030804653450D461646C0F03B
:104020009980D146DBF804300193B9F1000F00F01C
:104030008D80D8F83C3001225B6907A90198984728
:1040400007A81CF0DBFDDBF80030984240F08580CB
:1040500007A81CF0DFFD0428074614D107A81CF0B0
:10406000E0FD019B029A04463B44002A3FD1864270
:1040700012D91446361A404601991CF0C3FAA9EB2E
:1040800004090190D1E7D8F83C3002225B6901981D
:1040900008A9984708A8E2E7841B544528BF54465E
:1040A000032C03EB0607AAEB040A4FEA94021CD97F
:1040B000D8F83C30294638465B69984724F003031A
:1040C00004F003061F441D44002ED4D0D8F83C3021
:1040D00001225B6908A9384698473246284608A954
:1040E000354425F04BFD0026C5E72646ECE707469C
:1040F00000F00302039203442A1804920593049BE0
:10410000DD1B059BD81B039B9F420FD1002FB2D014
:10411000D8F83C30012208A95B6998473A462846FE
:1041200008A925F0F6FC78B93D44A4E7D8F83C305E
:10413000012208A95B6998470422284608A925F0AE
:10414000E8FC08B9043FDAE74FF0360948460BB0FF
:10415000BDE8F08F4FF06309F8E74FF06F09F5E71E
:104160005C1800202DE9F0410F461646984604469B
:1041700088B060B390F83450FDB101211CF07AF999
:1041800000210E9BCDE90511CDE902379DF83C30A9
:10419000CDF804808DF81C30237C04968BB90D4932
:1041A00001AA04F1080000F0D7FEDDE90553E06B39
:1041B000002E08BF1D461CF0F6FA284608B0BDE8E0
:1041C000F0812046044A01ABFFF7FEFDEDE705460E
:1041D000F3E700BF55070300953F01002DE9F04FBD
:1041E00099B00F4609920A69416C0E931439D31D98
:1041F000B3FBF1F3013302EBC302036B04469342BA
:10420000C0F00D820023DFF820940D93E36A484646
:104210001946079300F024FFD7E9033604930E9B59
:10422000022B4ED1CC2E40F08A81099B002B42D02C
:10423000394620461CF015FB656C079A6B1E13402F
:104240001490ED1AE36B01225B6916A97868984710
:1042500016A81CF0D7FC00280CBF04230823782ED6
:1042600006933DD9012300254FF0080A05933B68CA
:1042700005990E98C9F80030C9F810601CF0E4FCEC
:104280004FEA9A0310930023DDF81CB089F814005C
:104290000B930F9308930C93616C4A1E0BEA020276
:1042A0008B1A002E38D05544AB4240D8236B5B1A92
:1042B00013442363ABE0049B1B6814930823069309
:1042C000D0E7656C079A6B1E1340782EA5EB0305AB
:1042D00016D8FB7D7BB9099B002BB3D10423069331
:1042E000331DAB4210D9A6B1082DBBD8042500233D
:1042F000AA460593BBE7099B002BA3D10823EEE751
:10430000099B002B9ED1D9E7002505954FF0040AA3
:10431000ADE704250596F9E75345C7D3B0460BEB47
:104320000A030393089B002B18BF032313E0A3EB9E
:104330000A039E42B0460BEB0A0228BF98469E42F3
:104340000392EFD90123D9F8102089F8173096424B
:1043500071D1C9F804B0089399F81730002B6CD0CC
:1043600099F818200899D31C09EBC3030132C3F84C
:1043700004B0A3F80880997289F81820B8F1000FEA
:1043800014D00E9B022B5BD10B9B7BB90F9B43443C
:10439000032B0BD9E36B01229B69039814A998475F
:1043A0000546002840F03D8101230B93089B16A889
:1043B0000193059B009399F814204346396800F057
:1043C00005FEE36B58469B69109A16A99847051E8F
:1043D0000D9B18BF5B4652460D93594643462046F7
:1043E0001CF03DF9236B08F10302A3EB0A0322F052
:1043F00003029B1AC9F808002363002D40F01181C5
:104400000F9BDDF80CB04344A6EB08060F9359460A
:1044100020461CF0F7F800258346002E7FF43CAFC1
:10442000814A3968936804F10800E36252680E9B80
:1044300000F044FDDEE002238DE7C9F804B09DE7FB
:10444000099B002B30D1049BB8F1030F43440A931E
:1044500027D9DDE90301E36B4FEA98029B6998478E
:104460000546002865D118F003025FD0049B28F0B0
:1044700003052B440493039B1D444FF0FF33049921
:1044800015A8159325F07AFBE36B28469B6901225A
:1044900015A9984705460A9B0493002D86D0039BD7
:1044A00099E74246039DE8E7039B0A9307F120033F
:1044B0001193FB7D78689BB100233D7E0C9AD9B2A5
:1044C0008D4211D9119903F1010C31F83310914249
:1044D00026D9069907EBC303D8690A44104403E0C0
:1044E0000C9B069A13441844E36B01225B6915A9DF
:1044F0009847159B012213930C9B0A9804330C9345
:10450000E36B13A99B699847039B0A9A43449B1A40
:10451000042B054607D978B9134604330A93C8E734
:104520006346521ACBE70A9B0393B6E70A9B0493B0
:104530003CE70A9B0493B2E70A9B0393AFE770261C
:1045400004F1080303932368079A606CA2EB030A43
:10455000BAFBF0FA00FB0A301CF00EFCE16A804660
:1045600020461CF04FF8A26A82424AD0626CD9F809
:104570000830511E0B40216B2568891A0B442363B8
:104580000D9BE0625D1BB5FBF2F5AA4536D1079B9A
:10459000B3EB080A12D0E36B4FEA9A0241469B69DB
:1045A00098478346E36A079A5344E362236B039870
:1045B0009B1A434423631CF033FADA462368616C88
:1045C000E06B01FB05311CF04CFB20461BF05DFF4E
:1045D00020461CF05AF82063BAF1000F11D03A6956
:1045E000616CD31D1439B3FBF1F3013302EBC30249
:1045F0009042A8D2304619B0BDE8F08F4FF0000AC3
:10460000DCE73A69616CD31D1439B3FBF1F3013374
:1046100002EBC302236B9342BFF4F8ADEAE71C261A
:10462000E8E72E468CE700BF041800202DE9F34789
:104630001E4643690446B342884617469DF82890B3
:104640003DD300258DF8075020461BF0EAFED4F834
:1046500030A082450AD2236AB5EB430F06D200226E
:1046600020460DF10701FFF7EBFB30B39DF8073053
:10467000012B05D1002220460DF10701FFF7E0FBD9
:10468000B9F1030F06D0314620461BF0B5FE256B6D
:10469000854218D30D4D4FF0FF31284600F0E0FC65
:1046A0004B46002229462046C5E90376C5F800801E
:1046B00002B0BDE8F047FFF791BD0135C4E76220C5
:1046C00002B0BDE8F0871C20FAE700BF30180020D8
:1046D000032A2DE9F34106460D4617461C4606D12E
:1046E000237A012B23D0012002B0BDE8F081DFF84E
:1046F0006080096842460DF10703FFF7BBFA60606E
:104700000028EDD19DF80720237A032AE8D0D8F8B5
:1047100004106A689142E3D1012B2969D4F80CC0D6
:1047200007D172690CEB0103934202D92074207CFB
:10473000DAE708316144E1603B4601222946304610
:10474000FFF74CFD60600028CAD00020CCE700BF16
:10475000301800202DE9F341089C032A17462668EB
:1047600006D1237A012B24D0012002B0BDE8F081CC
:10477000DFF89080304642460DF10703FFF77AFAE2
:1047800060600028EDD12568D8F80400A96AD5F842
:1047900044C04840CCF100031840227AE1D1012AFC
:1047A00009D1E268D8F8103013447269934202D9F3
:1047B0002074207CD9E72868EB6A1B1A081AB3FB1F
:1047C000FCF3B0FBFCF083420BD1706CF36A421E29
:1047D0001340326B121A1344284633631BF012FF46
:1047E000E862D8F81020E36808321344E36001223D
:1047F0003B4604492068FFF7F1FC60600028B0D018
:104800000020B2E7301800202DE9F04F4FF0FF33C1
:104810004FF6FF720025044600F10806C0E909239F
:104820008BB0C3620562056330460F461CF0F8F892
:1048300020461BF02AFE20BB204639461BF0A5FE71
:1048400020461BF022FE20BB5E200BB0BDE8F08F9F
:10485000E26B2368606CD2F814C000FB05300522BF
:1048600005A9E04705A81CF057FA012828D12946D8
:1048700020461BF05BFE421C294620461BF024FE0E
:104880000135E3699D42E3D320461BF0FEFD00287D
:10489000D2D000254FF0FF394FF6FF73CA46A84625
:1048A000C4E90853E369984514D3A5EB0905012D24
:1048B00036D84FF6FF72636A934246D16720C4E749
:1048C0001CF054FA0028DBD0294620461BF02EFEAF
:1048D0000246D1E72368E26B606C576900FB083041
:1048E000052205A9B84705A81CF016FA834605A8B5
:1048F0001CF0E9F9074658461CF033FA68B15745F1
:1049000038BFC4F82480B94528BFB946BD4238BF76
:104910003D46BA46236A0133236208F10108C1E724
:104920004FF6FF7300256362E3699D42C1D2676C55
:104930002068E36B052207FB05005B6905A9984722
:1049400005A81CF0C0F90135EEE7E26B676C206842
:10495000694607FB030055690522A84768461CF015
:10496000B2F9626A2368606C504D00FB02301CF0A3
:1049700003FA4FF0FF33A062E3622A466FF00101B1
:10498000204605ABFFF776F900284FD1AD682946E0
:104990002046E5621BF055FD206320B92046E16A00
:1049A0001BF030FEE062294620461BF02BFE054638
:1049B000A36A9D423CD16569626CE91C143AB1FB63
:1049C000F2F14FF0000805EBC1050335B5FBF2F538
:1049D000C1460235E36999453CD3A8455AD22046E1
:1049E000616A1BF082FD0027064604F1400AB845C3
:1049F00012D8626C2368694602FB0639E36B052214
:104A00005B694846984768461CF05DF95346024684
:104A10004946E06B1CF0B2F9314620461BF065FDBB
:104A20000137AF420646E2D364200EE7A56AAEE73F
:104A3000294620461BF005FD236B29460344074603
:104A4000236320461BF0DEFD0546002FB0D1C4E9EC
:104A50000B07ADE7636C2768052203FB0977E36B5F
:104A600005A95B693846984705A81CF055F91CF064
:104A700078F960B138461CF07FF9014620461BF0FA
:104A8000E0FC636C143B984208BF08F1010809F18F
:104A900001099FE730461BF0C3FF0023204619465B
:104AA000034AFFF791F90020CFE600BF301800203D
:104AB000F10603000023624A2DE9F04117680E4613
:104AC0000446136018B921252846BDE8F08190F806
:104AD00034500DB309680268914240F0A9807168B2
:104AE0004268914240F0A480B1688268914240F0EF
:104AF0009F80F168C268914240F09A8031694269B2
:104B0000914240F09580B169C26B914240F0908033
:104B100072691D468261D7E750222946D0F8388055
:104B200025F021F8D6E90212336804F10800236069
:104B30007368C4F838806360336963617369A36123
:104B40001BF080FFB36904F14000E3639B68984762
:104B500094F8432020B1E561002AB4D05B25B3E787
:104B6000656C002DF7D06668B6FBF5F3E361002AAB
:104B7000A9D0B542F2D82268B2FBF5F105FB1122AB
:104B8000002A57D105FB1363002B53D120461BF09D
:104B900048FCA369043303449E424DD340F634726B
:104BA0006369CC3B934249D8B5F5805FD6D30321E6
:104BB00020461BF05FFCD4E90001E36B1B689847BB
:104BC0000546E36B0220DB6898471DB1002384F89B
:104BD00034301DE039462046FFF716FE64280546AE
:104BE00004D139462046FFF70FFE0546636C143B9F
:104BF000002DEBD1226A204602FB03F61BF011FCCC
:104C0000A369043303449E4206D284F834505A25E3
:104C1000E06B1BF0C8FD57E70123D4E90001094A06
:104C200084F834301368013313601BF0A5FFEFE7FD
:104C30005D2549E7592547E75A2545E75F2543E7BD
:104C400094110020901100202DE9FF410F4690465D
:104C50001E46054698B390F8343093B3B1F5801FE3
:104C600031D21A4C02211BF005FC22463946284657
:104C70000DF10F03FEF7FEFF024678B10123424615
:104C80000093394633462846FFF7D0FC0446E86BCC
:104C90001BF089FD204604B0BDE8F0819DF80F307F
:104CA000012BEBD12169B142E8D100934146334653
:104CB0002846FFF7A5F904460028DFD1E7E72124BD
:104CC000E8E71124E6E72924E4E700BF5C180020A8
:104CD0002DE9FF410C4616461F46054680B390F865
:104CE00034307BB3B1F5801F2ED2DFF86080012114
:104CF0001BF0C0FB2146424628460DF10F03FEF78C
:104D0000B9FF044670B99DF80F30012B11D1D8F8C6
:104D10001030BB4212D10246009031462846FFF7C0
:104D20006FF90446E86B1BF03EFD204604B0BDE879
:104D3000F081022B14BF2D246024F3E76324F1E7F4
:104D40002124F2E71124F0E72924EEE75C18002083
:104D50002DE9F04385B00C4617461E460546DDF8A2
:104D6000308098B390F8343093B3B1F5801F31D2CE
:104D7000DFF8649001211BF07DFB21464A4628465E
:104D80000DF10F03FEF776FF044688B99DF80F304A
:104D9000012B14D1D9F8102006EB08039A4213D343
:104DA00000904346324639462846FFF729F9044623
:104DB000E86B1BF0F8FC204605B0BDE8F083022B41
:104DC00014BF2D246024F3E76324F1E72124F2E7E4
:104DD0001124F0E72924EEE75C1800202DE9F341C7
:104DE0001F4600230C46164605463B6050B390F81C
:104DF00034304BB3B1F5801F28D2DFF85480012145
:104E00001BF038FB2146424628460DF10703FEF70A
:104E100031FF0446A0B99DF80730032B10D0022BB8
:104E20000AD10123336004233B60E86B1BF0BBFC19
:104E3000204602B0BDE8F081D8F810303060F3E7CA
:104E40002D24F2E72124F3E71124F1E72924EFE7E9
:104E50005C18002030B50C46054685B028B390F8A4
:104E6000343023B3B1F5801F23D202211BF002FBA3
:104E70000DF10F03214628460F4AFEF7FBFE0346BD
:104E800088B99DF80F20032A0DD0032221460092F5
:104E900002462846FFF7CAFB0446E86B1BF083FC7A
:104EA000204605B030BD2D24F7E72124F8E7112472
:104EB000F6E72924F4E700BF5C1800202DE9F04351
:104EC000466886B3056898464FF0000CA946AE4682
:104ED00055F83C400CF1010CC4F31307013401D028
:104EE000B94217D066450EF1080EF1D12F460024C5
:104EF00003E0A64207F1080712D055F83430013418
:104F00000133F6D1C1F3130141EA0851C7E9001298
:104F1000BDE8F08341EA0851CEE90012BDE8F08314
:104F2000B8F1030F03D101230372BDE8F08300231E
:104F300003E09E4209F10809F5D055F833400133EA
:104F4000C4F30754032CF4D1C1F3130343EA085309
:104F5000C9E90032BDE8F0832DE9F041064640681A
:104F600082B0C0B10F4690460024336853F83450E5
:104F700003EBC403C5F30752C5F31301013504F174
:104F8000010406D05B683046CDF80080B84710B108
:104F900070688442E9D302B0BDE8F081024B196821
:104FA000024B1868FFF786BD202A0020402A002007
:104FB00008B528F05EFC014B186008BD8818002079
:104FC000014B186828F050BC8818002073B50446BF
:104FD0002248012A00EAC1119DF8185023F07C40B4
:104FE00007D9961E012E28D9073303F07F031943F2
:104FF00008E09DF81C300A43DB0603F0C05313435E
:1050000043F060410023C4E900108DF80730B5B1CA
:10501000202221460DF107001BF0CAFE1A220DF1D5
:105020000700211D1BF0C4FE082063689DF80720BF
:1050300043EA8263636002B070BD1143E2E71B2262
:105040000DF1070021461BF0B3FE23689DF80720F1
:10505000042043EAC2632360EDE700BF80FFFF073F
:1050600038B5094B0D461A680021044624F07BFD33
:1050700000234FF0FF322383C4E900252361A2609F
:10508000E382A37638BD00BFB8E103000138C0B2A7
:1050900005289ABF014B185C01207047BDE1030051
:1050A0002DE9F0410746154600240E46596888B0A0
:1050B000490A012922464FEA510104F10104F8D8B6
:1050C000DC78997824031B88C90201F4006104F498
:1050D00080540C43C3F30A035203234492B24FF0AB
:1050E00000089C18274B6FEA0444039325F078438B
:1050F000ED4302A90DF107001B2202938DF80780F2
:105100001BF056FE9DF80720029B02A943EAC263EA
:105110000DF107001B2225F07845049302958DF8C8
:1051200007801BF045FE9DF80720029B6FEA1444A0
:1051300043EAC26305934FF0FF330794069307A930
:10514000BB69012206F110009847BB6905A9044616
:10515000012206F108009847BB69404518BF044684
:1051600004A90122301D98470122404518BF04467A
:10517000BB69304603A99847404508BF204608B0A0
:10518000BDE8F08101009AB2044BD3F88420D20626
:10519000FBD4D3F88400C0F3811070470040005066
:1051A00038B5184B0546D3F824010C4600F007002B
:1051B000062823D8DFE800F0040A121A1E0E160093
:1051C000012305B1286004B1236038BD27F01CFA23
:1051D0000523F6E727F018FA0623F2E727F054FA3A
:1051E0000323EEE727F050FA0423EAE727F048FA12
:1051F0000223E6E727F04EFA0723E2E700231846EA
:10520000DFE700BF0080005038B5104B0546D3F8EB
:1052100000310C4603F00303022B0BD0032B0DD0FF
:10522000012B0FD127F030FA032305B1286004B118
:10523000236038BD27F032FA0823F6E727F02AFA70
:105240000723F2E701230020EFE700BF00800050B2
:1052500038B5104B0546D3F820310C4603F0030354
:10526000022B0BD0032B0DD0012B0FD127F0CCF943
:10527000052305B1286004B1236038BD27F004FA86
:105280000323F6E727F0FCF90223F2E701230020CD
:10529000EFE700BF0080005038B5104B0546D3F84B
:1052A00040310C4603F00303022B0BD0032B0DD02F
:1052B000012B0FD128F0D2FA092305B1286004B1DF
:1052C000236038BD27F0EAF90823F6E728F0C9FA89
:1052D0000B23F2E701230020EFE700BF008000501E
:1052E00038B5104B0546D3F860310C4603F0030384
:1052F000022B0BD0032B0DD0012B0FD128F0AEFACF
:10530000092305B1286004B1236038BD27F0C6F930
:105310000823F6E728F0A5FA0B23F2E70123002083
:10532000EFE700BF008000502E4B98424AD022D8B1
:105330002D4B984240D014D82C4B984239D00AD8E3
:105340002B4B984232D02B4B98422FD02A4B98426D
:105350002CD000207047294B9842FAD1284B186F67
:105360007047284B98422AD0274B9842F1D1244BC2
:10537000D3F880007047254B98422BD009D8244B96
:10538000984223D0234B9842E3D11D4BD3F88C0095
:105390007047214B984221D003F5740303F5105355
:1053A0009842D6D1164BD3F898007047144B986D9D
:1053B0007047134B586E7047114B586F7047104B26
:1053C000986F70470E4BD3F8840070470C4BD3F89E
:1053D000880070470A4BD3F890007047084BD3F809
:1053E000940070470048E8010024F400C0CF6A0030
:1053F00080841E0000093D0040420F00405DC60051
:105400000080E00FC0EA210180BA8C01007E5603C3
:1054100080D54302006CDC020090D00373B50D46CA
:1054200000210E4B0191D3F88041064604F003049D
:10543000012C09D0022C0CD00C460EB1019B33601C
:1054400005B12C6002B070BD01A8FFF701FF0F2469
:10545000F3E727F015F90190EFE700BF0080005057
:1054600038B5104B0546D3F840320C4603F0030321
:10547000022B0BD0032B0DD0012B0FD128F0EEF90E
:10548000092305B1286004B1236038BD27F006F96F
:105490000823F6E728F0E5F90B23F2E70023184686
:1054A000EFE700BF0080005038B5144B0546D3F835
:1054B00000020C4600F0070004281BD8DFE800F0CB
:1054C00003090D111500012305B1286004B1236003
:1054D00038BD28F0C3F90923F6E727F0DFF80823E1
:1054E000F2E728F0BEF90B23EEE727F0B3F80E231E
:1054F000800AE9E700231846E6E700BF0080005075
:1055000010B40D4C0B46D4F8204204F00304012CD7
:105510000AD0022C0CD008B1002101600BB100228E
:105520001A605DF8044B70475DF8044BFFF790BEBE
:105530005DF8044BFFF7B0BE00800050B0F5207F4F
:105540001FD009D8B0F5007F15D003D868B1B0F5E9
:10555000C07F0AD000200CE0B0F5607FFAD10B4B81
:10556000D3F88000C0F3011003E0084B186FC0F3BC
:10557000033001307047054BD3F89000C0F304604E
:10558000F7E7024B186FC0F38020F2E7008000506D
:105590004FF400320E4B014610B500209A66FFF71B
:1055A000CDFF484341F671320A490B4B884294BF04
:1055B00000200120DC69DA639A6822F4401242EA92
:1055C00000529A60E20344BF0022DA6310BD00BFBC
:1055D00000900050005A620200000350420910B5CA
:1055E0000FD0012A0FD00A4B0A4C022A18BF2346BB
:1055F00000F01F0049B103F58053012282401A6078
:1056000010BD1346F4E7044BF2E703F50053F4E74B
:105610006880005060820050648000501FB50021F7
:10562000B0F5807F0446019100F0068100F29D8074
:10563000612800F295801F2805D8002840F092804C
:1056400027F008F8DCE0A0F12004412C00F28A8069
:1056500001A353F824F000BF415601000558010092
:105660004156010005580100255801002558010048
:105670002558010025580100055801000558010072
:10568000DF570100995701005B5801006558010080
:1056900099570100055801000558010005580100FF
:1056A0006557010065570100655701006557010006
:1056B00065570100655701002F580100BB570100D5
:1056C00005580100055801000558010079580100EE
:1056D0006F5801000558010065570100655701002A
:1056E00065570100655701006557010065570100C6
:1056F00065570100655701006557010065570100B6
:1057000065570100655701006557010041560100CA
:105710006557010041560100415601004156010004
:1057200025580100655701006557010065570100C4
:105730006557010065570100655701006557010075
:105740006557010065570100655701006557010065
:10575000655701006557010041560100415601009F
:1057600080284BD0019804B010BDB0F5A06F5ED07A
:1057700028D8B0F5607F50D019D8B0F5007F4CD054
:1057800004D8B0F5C07F3FF45BAFEBE7B0F5207F06
:1057900038D0B0F5407FE5D126F05CFF02464FF4EB
:1057A0002070FFF7CBFEB2FBF0F2520833E0B0F509
:1057B000806F37D0B0F5906FD4D1002101A8FFF7EA
:1057C000EFFCCFE7B0F5E06F51D00DD8B0F5C06F6A
:1057D00043D0B0F5D06F45D0B0F5B06FC2D1002145
:1057E00001A8FFF71BFEBDE7B0F5F06F44D0B0F5A0
:1057F000086FB7D101A8FFF707FDB3E726F00AFF4E
:105800000190AFE726F026FF02464FF42070FFF725
:1058100095FEB2FBF0F20192A4E726F0FBFE0246F1
:105820002046F4E7002101A8FFF712FD9AE70021C6
:1058300001A8FFF765FE95E74FF0E02302911B6991
:105840005B0705D526F006FF0290029B019389E7CE
:1058500003A902A8FFF720FDF7E7002101A8FFF741
:105860001BFD7FE7002101A8FFF71EFE7AE700215C
:1058700001A8FFF7F5FD75E7002101A8FFF730FD4E
:1058800070E700BF08B58020FFF7C8FE034B9842C1
:105890009EBF4FF48032024B1A6708BD005A620265
:1058A00000A000501FB503460020B3F5807F019093
:1058B0006FD027D8382B00F082800BD8243B092BDF
:1058C0000FD8092B0DD8DFE803F05F5F5F5F0C0C8A
:1058D0005A0C3675522B57D007D83D2B3AD03E2B59
:1058E00072D0019805B05DF804FB802BF9D1394BDB
:1058F0001B6F03F00703013B032BF2D8DFE803F033
:105900003D36393BB3F5D06F54D019D8B3F5A06FFD
:1059100055D00AD8B3F5806F36D0B3F5906FE0D18B
:10592000002001A9FFF73CFCDBE7B3F5B06F26D000
:10593000B3F5C06FD5D1002001A9FFF7ADFCD0E7CA
:10594000B3F5006FECD00AD8B3F5E06F3CD0B3F5F7
:10595000F06FC6D1002001A9FFF7C2FCC1E7B3F583
:10596000086FBED101A9FFF74FFCBAE705230193E9
:10597000B7E70323FBE70723F9E70223F7E7002054
:1059800001A9FFF74BFDACE7002001A9FFF760FC80
:10599000A7E74FF0E02302901B695B0705D526F0CF
:1059A00059FE0C230393039BE1E703A902A8FFF729
:1059B00073FCF8E7002001A9FFF776FD91E70020CE
:1059C00001A9FFF79DFD8CE7002001A9FFF748FD25
:1059D00087E700BF008000504FF48032074B084932
:1059E000586E03F580535A660B6A23F001030B626D
:1059F000C3035CBF034B5A66704700BF0080005072
:105A000000C0075000A0005008B5FFF74BFF082862
:105A100011D00938012802D94FF6FF7008BD4FF4A4
:105A20000012064B5A6603F5D8335B6ADB07F3D5E1
:105A30004FF4FA70F2E7024B1888EFE7009000503D
:105A4000302C002008B5FFF72DFF03280ABF024BBA
:105A50004FF6FF70188808BD2E2C0020F8B50446BC
:105A60008020FFF71FFF032800F087804FF40022FB
:105A7000424B02215A6645F60E03414AC2F8803075
:105A8000404B9962012103F580539962936DD903CC
:105A9000FCD4D4E900131B0543EA0163E17B94F8CD
:105AA00020500B43217BE77E43EA0143617B6D017C
:105AB00043EA0133A17B43EA811313619169D4E97D
:105AC00004031B0643EA806301F000410B43A17EFF
:105AD00094F823000B43217E43EA0143617E43EAAD
:105AE00001239361136AE66923F00D0394F82210F1
:105AF00043EA8703002E2DD11362966A94F8213071
:105B000045EA031326F033052B4343F00103936268
:105B10001D4D1B4B9A6D35EA0202FBD10222194D35
:105B2000AA621A659A6D5200FCD41A69A56822F41B
:105B3000700242EA05521A614FF00042114B9A611D
:105B400019B9022203F580539A6278B901220F4BEA
:105B50009A620BE0334343F008031362936A23F025
:105B6000330303432B4343EA4103936294F8243005
:105B70001BB1034B064AC3F88020F8BD00900050CB
:105B800000C0005000D000500300014000E0005071
:105B9000F1A7FFFF014B93F900007047E5260020B5
:105BA000F0B5D0E901434FF480061A4A41780578F0
:105BB00056664FF4D156022702F5B8325662164E99
:105BC0004F2977604FF0010728BF4F2106F5805617
:105BD00077601669F603FCD441EA052151611B0187
:105BE000417B43EA04230B43017B43EA4103936077
:105BF000C37B817B1B0143EA4113417C0B43017C46
:105C000043EA41035360837C13B16FF4D153536271
:105C1000F0BD00BF0090005000100250014B1880F2
:105C2000704700BF302C0020014B1880704700BF28
:105C30002E2C00204FF4001208B5184B5A66022390
:105C4000174A5360936813F48033FBD1012822D1A3
:105C500026F01AFD134B984215D003F5122303F5D5
:105C6000F863984213D0104B00EB8002400AB3FB5C
:105C7000F0F3520A0A49CA620B6301234B62002205
:105C8000074B5A6008BD45F67A13084AF2E745F615
:105C90001A03074AEEE75362F1E700BF0090005095
:105CA0000040025000F0490264666666D8B80500FC
:105CB000BBCF0500B0F5207F10B50C4642D008D808
:105CC000B0F5007F33D003D888B1B0F5C07F0ED0D7
:105CD00010BDB0F5607FFBD11F4A4C1ED2F880305A
:105CE00023F0300343EA0413C2F88030F0E71BF0DE
:105CF0007DF81BF089F84FF48031184B164A19676C
:105D0000136F013C23F4704343EA0433136726F016
:105D1000A1FC0446FFF738FAC0F1020120461BF04F
:105D20006DF800F035F8BDE81040FFF7ABBD0A4A4A
:105D30004C1ED2F8903023F0F85343EA0463C2F8C3
:105D40009030C5E7044A4C1E136F23F4806343EA86
:105D500084231367BCE700BF008000500090005010
:105D600008B50121022000F085F94FF42070FFF7FB
:105D7000E5FB054B18701BF039F81BF045F84FF4A4
:105D80008032024B1A6708BDE426002000900050C4
:105D900008B54FF4C070FFF741FCBDE80840044966
:105DA000884294BF012102214FF42070FFF782BF87
:105DB00080F0FA0238B5044626F04CFC0546FFF7A1
:105DC000E3F9C0F1020128461BF018F80121002078
:105DD00000F090F92CB1FFF7DBFFBDE83840FFF78A
:105DE00051BD034B4FF420701978FFF763FFF4E7C0
:105DF000E42600204FF4C02270B50546FFF794FA60
:105E0000314B04465A6603F598335A68012A04D187
:105E10002E494A609A699207FCD18020FFF742FD23
:105E2000052807D11AF0E2FF1AF0EEFF4FF4803296
:105E3000254B1A67264B24F040749D4230D0254BE9
:105E40009D4230D026F0E0FB8542064603D9012171
:105E5000284600F04FF9204BDA6812F0060FFBD10C
:105E600099689C609A68624012F4F81F1ED1284617
:105E7000FDF712FA8020FFF715FD05280DD126F059
:105E8000E9FB0446FFF780F9C0F1020120461AF051
:105E9000B5FFFFF77DFFFFF7F5FCAE420CD270BDFA
:105EA00044F00074CEE744F08074CBE78020996022
:105EB000FFF7F8FC052805D0BDE87040012100205F
:105EC00000F018B93546DAE70090005000E00150C4
:105ED00040420F0080841E000000015010B5224B8C
:105EE00070B94FF40031214A1860516602F59832BA
:105EF0005268012A03D11E4AD2F800211A6010BD4F
:105F00001B68002BFBD01B4A5268012AF7D0184AA5
:105F10008020C2F80031FFF7C5FC05281FD14FF4DF
:105F2000C070FFF70BFB0128044604D102214FF497
:105F3000C070FFF7BFFE07220F4B1A610122A3F5C5
:105F400080535A600B4A1369DB07FCD5012CD6D16C
:105F50002146BDE810404FF4C070FFF7ABBE0122F0
:105F6000064B5A60CBE700BF8C1800200090005011
:105F70000080005000C0015000E0015000D00150EE
:105F8000044A4178536F23F4407343EA0123536773
:105F9000704700BF0040005010B5044610B100200B
:105FA000FFF79CFF124A136943F00403136127F0C3
:105FB000CFF81AF02EFF0F4B5B6E5B0142BF0E4B0A
:105FC0000E4AC3F8202427F054FC27F065FE27F082
:105FD0004BFC1AF01FFF02F0DFFD1CB9BDE81040BA
:105FE00026F038BB0120BDE81040FFF777BF00BFA7
:105FF00000ED00E00080005000E003500000FF0FC3
:1060000010B5044610B10020FFF768FF104A13696D
:1060100043F0040313610F4B5B6E5B0142BF0E4BF9
:106020000E4AC3F8202427F093F827F022FC27F02B
:1060300033FE27F019FC02F0AFFD1CB9BDE810409B
:1060400026F008BB0120BDE81040FFF747BF00BFA6
:1060500000ED00E00080005000E003500000FF0F62
:10606000034A0179D36E23F030030B43D3667047A4
:1060700000400050F8B504461C4BD3F88420D106EC
:10608000FBD4D3F88430C3F381139C422CD026F088
:10609000C1FA012C064602D121461AF0AFFE27F0C4
:1060A000E8FB4FF00072124B07465A6620461AF082
:1060B000B8FE4FF480630D4D621E93402B676B6EEC
:1060C0009A0103D4D5F884309B060AD5384627F0C8
:1060D000CBFB022C08D13046BDE8F84000211AF075
:1060E0008DBED5F88430EAE7F8BD00BF004000500F
:1060F0000060005010B50C4608B926F08BFA074B2B
:1061000021461B783BB1064B984204D80120BDE8DC
:106110001040FFF7AFBF0220F9E700BFE6260020DE
:10612000005A62020278034B012100201A70FFF727
:10613000E1BF00BFE62600204FF0004238B5264BF5
:1061400026495A6601224A604AF6CD3103F50B23EF
:106150005D6C1964154030BB9968C9070BD40024E5
:1061600001221F4B5A6015B11E4B1F4A1A6422F0C0
:106170003BFE204638BD1A498A601C4AD96ACC07C2
:1061800005D4904201D10724EAE70130F6E79042B6
:10619000E5D1F8E70132DC6A14F0080406D08A423F
:1061A000F8D10724DFE700221049F4E78A42F8D04B
:1061B00020220B4B0B495A620122A3F580539A60AF
:1061C00023460A4A486A800603D49342E9D0013341
:1061D000F8E79342C7D1E4E700900050005009501F
:1061E00000600950004009503254FFFF40420F0048
:1061F0004FF0004238B5174B174C5A66012203F591
:106200000C235A604AF6CD33656C2364437893407F
:106210001343124AD363C3788178A2689B0043EA90
:10622000011322F074021343A3600279837943EAD5
:10623000022323614279C37943EA02236361007830
:10624000FFF77AFFEB0744BF054B236422F0CCFD38
:10625000012038BD0090005000400950004000501F
:106260003254FFFF072A2DE9F041154698464FF0BA
:10627000030401F003072DD89600B44000FA06F29B
:1062800021461C481AF0CEFD21461B4807FA06F2AB
:106290001AF0C8FD194B1A499DF81800B8F1000F03
:1062A00018BF1946012303FA05F50D60154B164971
:1062B000002818BF0B461D60144B9DF81C00C3F846
:1062C0002054103103F22443002818BF0B461D60F0
:1062D000BDE8F081A2F10806B600B44000FA06F26B
:1062E00021460B481AF09EFD21460A4807FA06F29D
:1062F000CEE700BF00C4035008C4035010D40350BD
:1063000010E4035014E4035014D4035000E003508D
:1063100004C403500CC40350F8B504460D461F4690
:1063200016464AB101238B403021184A01FB002256
:10633000F7B141F21001535004EB4403072D4FF025
:106340000F014FEA031316D8A80006FA00F28140A5
:106350000F4818441AF066FD4EB9012330210B4A4C
:10636000AB4001FB042277B141F210015350F8BD5C
:1063700042F21001DFE7A5F10800800006FA00F202
:1063800081400448E5E742F21001EFE700C0035006
:1063900004C003500CC0035010B5152001F064FC7C
:1063A0000024FF22064B21465C6520209A625C6037
:1063B000FFF714F92146BDE810402120FFF70EB980
:1063C00000000450044A054B002908BF134601226F
:1063D00082401A60704700BF4010045040200450B3
:1063E00010B5012104462020FFF7F8F801212120F3
:1063F000FFF7F4F80122114B15205A60227812069B
:106400009A606178A27842EA01429A61FF229A6218
:1064100000229A631A644FF000425A654FF0FF322F
:1064200003F500531A6501F04DFC1520E1781AF0D0
:10643000E6FDBDE81040152001F028BC0000045026
:10644000F8B50125C3B2DFF88CC0D1F800E09D405B
:106450008F7ACB7A0C46097BCCF850500CF5005C57
:106460004CF820E04FF0300E184E1B050EFB00607C
:1064700094F80DC043EA074343EA415322F0030274
:10648000C0F860C0C365026727F0FCF9104B5D657A
:10649000237A13B1336C2B433364637A13B1B36B38
:1064A0002B43B3632279A37943EA0243094A9361F8
:1064B0006179E37943EA014305498B61034B5563F5
:1064C0009D64BDE8F84027F0D8B900BF0000045033
:1064D000001004500020045010B50124C0B28440C4
:1064E00027F0D0F9044B5A6D22EA04025A659C62E7
:1064F000BDE8104027F0C1B90000045010B50124D8
:10650000C0B2844027F0BEF9074BDA6A224208D1B4
:106510005B6B9C430CBF0124002427F0AEF920469E
:1065200010BD0024F9E700BF0000045070B5054617
:1065300027F0A8F93022084B5E6B02FB05335C6E36
:1065400027F09BF90123EDB2AB4033420ABFC4F3FD
:106550000A100020013070BD000004504FF40032DA
:10656000054B9A6641F6713203F51C33DA6301225A
:1065700003F50053DA6070470090005041F6713225
:106580000121064BDA6303F50052D1600022DA6381
:106590004FF40032A3F518339A6670470000035099
:1065A000CB784A7810B55B010C7843EA82030A790C
:1065B000234343EA02130C22424302F1B042136325
:1065C000012C02BF8A78024B43F8202010BD00BF87
:1065D000E880035008B54FF0B0435A686AB958B123
:1065E0005B680BB11AF02DFC01210D4B59601AF0BC
:1065F00028FC4FF0B043D96008BD5B680BB11AF0BE
:1066000020FC0028F0D11AF01CFC4FF0B04302220D
:10661000DA601AF016FC0122024B5A60ECE700BF68
:1066200000100058002000584FF0B0414B6810B5E2
:106630000BB11AF006FC01220B4BC4785A60837828
:10664000934043EA840344782343047943EA0413E0
:10665000447943EAC4038B60044B5A600378C3F166
:106660000203CB6010BD00BF00200058001000588E
:106670004FF48032064B5A6603F5E6235B69C3F399
:106680008512827003F03F021B0B4270037070474B
:1066900000900050014B986CD96C70470080E00F5F
:1066A000024B1868C0F30740704700BF0080E00F3E
:1066B0000120034B9B680A3303F01F039840704787
:1066C0000080E00F70B5054616461C4621B94FF410
:1066D0002070FEF7A3FF0146402C1BD003D8DCB18D
:1066E000202C1BD070BD602CFCD1042303FB06F2D0
:1066F000530803EB4113B3FBF2F3094A203B02EAD0
:10670000C303AA6822F06002AA60AA681443AC60BE
:10671000EB61E7E70623E9E71023E7E70823E5E76E
:10672000F8FF7F00012200F580535A6040F6AA630B
:1067300041F20502436100230B498360C365C260D7
:1067400000F500520361C361C36491640749836526
:10675000884203D103650023436502E0044988426F
:10676000F8D0012353607047FFFF010000C00550BF
:106770000000065070B50D46FFF7D4FF012300F569
:1067800080567360AB7C04461BB1836843F0804342
:106790008360EB7C5BB1354A2B7D944245D1A2F5F9
:1067A0001032C2F88C31E36D43F08003E3652A8A2E
:1067B0006B7B20461343EA891343E3602B7BD5E9C7
:1067C0000112FFF77FFF6B7D1BB1A36843F4803399
:1067D000A360AB7D1BB1A36843F40043A360EB7DD2
:1067E0002A7E1B07120502F4E00203F0E043134384
:1067F000A365697E1D4A8B1E012B1D4B1FD8944239
:106800001BD002F5804294420CBF01224FF0FF32B0
:1068100003EB4213022041F21C620329985020D15D
:106820000423F3652B78636170BD124A944204BF60
:10683000A2F52032C2F89C31B5E70022E8E7944285
:106840000DD00C4A94420CBF01224FF0FF3203EBF3
:106850004213022042F21C6201299850DFE7002215
:10686000F5E7042204F50053DA65DBE700C00550C4
:1068700000C0035000000650034BD3F82424D3F883
:1068800020041040704700BF00C003502DE9F843BA
:106890001E4B0546D3F810334B1E0E2B0E461746E3
:1068A00090F8009044781DD909B34FF000082846AD
:1068B000D7B126F0EDFF09EB4903072C4FF00F018C
:1068C0004FEA031315D8A400114808FA04F2A140B6
:1068D00018441AF0D2FABEB928468FB1BDE8F84381
:1068E00026F0D6BF8846E2E71AF0D6FAE3E78846F4
:1068F000E1E7083CA400074808FA04F2A140E7E7F2
:10690000BDE8F8431AF0C8BABDE8F88300C00350E8
:1069100004C003500CC003504FF48032084B5A6639
:1069200003F5E6235B691A0B027003F03F02427025
:106930004FF6FF72C3F3851342808380704700BF18
:1069400000900050014B986CD96C70470080E00FAC
:1069500070B5044622F016FB064630B90FCC044D44
:106960000FC594E8030085E80300304670BD00BF02
:106970009018002047F6FF739A42F0B56FD00229B5
:106980006FD8394B5B5C012B6BD8384DDF0005EBC2
:10699000C30415F83330A178012B13D10025E0781A
:1069A000401AA84202D80844C0B2F0BD431B666832
:1069B000A0EB530336F913609642D4BF1D4603F192
:1069C000FF30EEE760680028EFD0B0F90040944255
:1069D00004DBB0F902409442B8BF144683883D44BA
:1069E000FF2B19BFC8224FF0280CB0F90620B0F9D0
:1069F00008C0A2EB04030CBF0126002693FBFCF3A6
:106A000033446E781BB29E4201DD002B01DA731E07
:106A10001BB24FF47A7C01339BB2071D5D1E2DB271
:106A20004FEAC50E00EBC505EA88AD689E4214FB2F
:106A3000025222EAE27202F15C02B2FBFCF204DDD5
:106A400037F8335001339542E8D200EB0E039888B3
:106A5000904228BF1046884238BF0846A4E7FF206E
:106A6000A3E70020A1E700BFC3E1030090180020C6
:106A70000229F0B555D82C4B585C012851D82B4C25
:106A800004EBC00114F830004B6801280FD1C8781E
:106A90008C78904294BFC4EB0001C4EB0201001B50
:106AA000CAB28242C8BF002233F91200F0BD002BE7
:106AB00037D08878904202D3B3F90200F6E7CC7859
:106AC000B3F900009442F1D94C789988013CA1F1C6
:106AD000FF06714203F10405E4B2714103F10C07B2
:106AE000CEB2B44216D805EBC1014FF47A756A43B1
:106AF000B1F902404968521A04EBD47102EB610209
:106B000092FBF4F29042D1DBB3F902009042CDDC6B
:106B100010B2CBE737F831C04E1C9445E3D3314671
:106B2000DEE70348C2E700BFC3E10300901800207E
:106B30000080FFFF08B50448FFF70AFFBDE80840E2
:106B4000012022F023BA00BFF0E70300004870479D
:106B5000322C00207FB50222084B0949CDE90123E0
:106B60004FF00073CDE90313052301A94FF0FF3067
:106B7000059322F054FA07B05DF804FB006A180090
:106B80000002040006289ABF014B185C00207047E1
:106B9000C6E103004FF40052034B00209A66032223
:106BA000C3F86022704700BF009000504FF40052BD
:106BB000034B00209A660322C3F86022704700BF8F
:106BC00000A00050012300F01F02A0F50620094993
:106BD000A0F550604009934051F820201A4341F835
:106BE0002020054951F8202022EA030241F8202004
:106BF000704700BFC0180020AC1800200121A0F58C
:106C000006230E4AA3F550635B0900F01F00814084
:106C100052F82300014342F823100949D1E900301A
:106C2000034488680344C868096903445B1802BFC9
:106C3000C2E90033C2E9023313617047AC18002087
:106C4000C01800202DE9F04FA9B003921D4604465C
:106C50000822339ECDE90401414021FA02F34B4062
:106C6000980702F1080218BF9B00202A1C44F4D1A7
:106C70008123B4FBF3F303EBC313E41A734B04F562
:106C800006241B7804F55064002B3ED1FEF786F9EC
:106C9000074620B16FF0910029B0BDE8F08F0146A2
:106CA000402208A822F05FFF4022394618A822F0AF
:106CB0005AFFDFF8B081DFF8B091C3460BF10F0A3D
:106CC000CDF800A0102208A95B46D9F8000019F001
:106CD00095FE0022014608F1100808AF914246D106
:106CE000CDF800A05B461022D9F8000018A919F0D1
:106CF0008EFE4FF0000A834618AFD34541D1544B66
:106D00009845DAD10122514B1A704FF0810A4FF0A9
:106D10000008DFF858B1A4F50627A7F550635B0912
:106D20005BF8232004F01F01CA40D2073DD4494A32
:106D300052F82330CB40DB072AD5B8F1000F08BF4B
:106D4000A0468123A7F6FF47B7FBF3F303EBC3137A
:106D5000FF1A07F50624BAF1010A04F55064DAD1E6
:106D6000039BBBB1B8F1000F14D0444619E057F8AB
:106D7000040BCDE90612FFF725FF079A06990132A9
:106D8000ACE757F8040BFFF739FF0AF1010AB4E743
:106D9000039B13B96FF08B007EE7B8F1000F18BFAB
:106DA0004446349B00201C6076E7329B13B10023DD
:106DB000329A13600EB1002333601023DFF8A890DD
:106DC00000932A4600232146D9F80000FDF7C0FFB2
:106DD00060BB32992A68204BC9B99A4206D0214635
:106DE000D9F80000FEF736F80028D3D1D5E9022300
:106DF000DDE90410834208BF8A42A2D1039B002B25
:106E0000CFD06B68012BCCD16FF0840044E7102009
:106E100032999A420860E2D1002EE7D033462146EB
:106E2000D9F8000018AAFDF7D9FF40B10B4B9842E2
:106E3000D5D06328D3D00A4B9842D7D02AE7329ACC
:106E4000336812689B1A3360D0E700BFE726002042
:106E500000710800AC180020105D175EFFDF00F025
:106E6000FEDF00F0006D0800402A0020C01800205E
:106E70002DE9F04F87B08246894698461646DDF8E0
:106E800040B02AB1002B4FD040F26C739A424ED8DA
:106E9000BBF1010F4ED8002406F11007394601203E
:106EA00005941AF00BFC0546002846D021463A46C8
:106EB00022F059FE05ABCDE9014300942B46012297
:106EC00050464946FFF7BEFE044680B110F18C0FD4
:106ED00008BF6FF08D043A460021284622F043FE99
:106EE00028461AF0CDFB204607B0BDE8F08F144BC2
:106EF000C5E902A92B60C5F804B02EB1324641465F
:106F000005F1100022F03AFE059E0E483B462A4647
:106F100031460068FDF798FE18B93046FFF752FE7B
:106F2000D9E76FF09104D6E76FF08604DBE76FF0E6
:106F30009104D8E76FF08504D5E76FF08C04D2E7B1
:106F4000105D175E402A00202DE9F0438DB0814688
:106F5000DDE914780E4615461C469BB1B8F1000FCA
:106F600005D16FF0860630460DB0BDE8F083002FE6
:106F7000F7D0B7F1005FF4D3C3F1005303F500433A
:106F80009F42EED81022002108A822F0ECFD00223A
:106F900007AB029305AB019306AB3146009348461D
:106FA00008ABCDE90522FFF74DFE06460028DAD1F1
:106FB000059BA4B1AB4215D853EA0504D1D1069B79
:106FC0000B48C8F8004000943A46079900682B44E3
:106FD000FDF7BEFE002818BF6FF09106C3E7AB4275
:106FE000EDD2BEE75B1B9C4228BF1C46E7E700BF13
:106FF000402A002030B58DB00C46054610220021F5
:1070000008A822F0B0FD002207AB029305AB019364
:1070100006AB21460093284608ABCDE90522FFF7D1
:1070200011FE0446D8B9099B012B1BD0079D104BBC
:1070300029461868FDF70EFFB8B90122A5F5062309
:107040000C49A3F550635B0905F01F00824051F81D
:1070500023004240284641F82320FFF7CFFD204679
:107060000DB030BD6FF08404F9E76FF09104F6E7DE
:10707000402A0020C01800202DE9F04F89B00746B3
:107080000E4601F0EFFEC00709D4042401201AF0D7
:1070900040FF80B3013CF9D16FF0920028E010224C
:1070A00000210DEB020022F05EFD04A801F03CFF80
:1070B000049B002BE9D0059B002BE6D0069B002B00
:1070C000E3D0079B002BE0D00025DFF8808008F19B
:1070D0000409B54219D34FF48A7401F0BDFE00F0E3
:1070E0000E03062B2DD1C30501D501F0E7FE0020CC
:1070F00009B0BDE8F08F01F0AFFE10F00E03FAD03A
:10710000022BF8D04105DFD5C4E701F09FFEA6EBC6
:10711000050A8400544528BF544699E8030000231B
:107120008DE80300CDE9054307EB050BCDF810B062
:10713000029404AAD8F8003007CA1AF0E3FD2544E7
:10714000C7E724FA03F3DA07A6D5C6E7F4E103009C
:107150002DE9F0438BB01746DDE91545DDE913262F
:107160009C46DDE91738894621B96FF086000BB0DF
:10717000BDE8F083002FF8D00EB9002CF5D112999C
:1071800009B9002AF1D10DB9002BEED1B8F1000FE9
:10719000EBD0244A944541D10288B2F5105F3DD12D
:1071A0004288B7EBD20FE0D322F04001802902D011
:1071B000B2F5807FD9D16CB3AE421CD23219954260
:1071C00019D29C42D1D831462246284622F0B1FC41
:1071D0002E4614F00F03C8D1CDE90197CDE903364F
:1071E000CDE90543CDE907540993FFF7D3FC38B146
:1071F0006FF09200BBE79C42EBD96FF08900B6E7D5
:1072000007AA04A901A801F053FF0546FFF7CEFC29
:107210000543EDD10020C8F80040A8E76FF08500D5
:10722000A5E700BF004440042DE9F04FA9B0834614
:1072300017469A460E46DDF8C890DDF8D88029B981
:107240006FF08603184629B0BDE8F08F002AF7D00A
:10725000B9F1000FF4D0349B002BF1D0B8F1000F3E
:10726000EED00024424B0CAD93E8070085E8070000
:107270003C22214619A8189422F075FC33887288A4
:1072800003F4E040B0F5804FDAD03A4E3A480BEACA
:10729000060646F01066864263D1B2F5807F60D163
:1072A00047F2121293425CD10620344ABAF11F0F02
:1072B000D3680E940B931369126800FB03F3CDE9B6
:1072C0000C23BDD9339B402BBAD9359B1F2B4BD9EF
:1072D00009F1010220261292402299F800300F97FE
:1072E000042B18AFCDE91324CDE915721096119433
:1072F0001794A5D1FFF74EFC03460028A2D10B9BA3
:1073000015AACDE9086305AB07CA83E8070002ABFD
:1073100012AA07CA83E80700DDE910018DE803001F
:107320000F9B95E8070001F09DFF0546FFF73EFC27
:1073300055EA000384D13D46349A20AE2C4603CC56
:10734000B44210605160254602F10802F6D10022D5
:107350001146B9540132402AFBD12022C8F800203E
:1073600070E76FF085036DE76FF089036AE700BF90
:1073700020E303000000FFF60000020934E30300ED
:10738000F0B50E461D468BB0002853D0002951D0D1
:10739000002A4FD0002B4DD0048804F44F43B3F59E
:1073A000824F03D06FF085000BB0F0BDE3B224F044
:1073B000FF04B4F5E24FB0F802C0F3D1122B01D0B4
:1073C000172BEFD10CF10701B2EBD10F4FEAD10728
:1073D00033D31D4A04ACBCF5807F07CA84E807009C
:1073E000E0D1122B07D1194B1A691B681344CDE960
:1073F0000432002306930023CDE907670993FFF7C2
:10740000C9FB0028D0D1124A02AB92E8030083E8FE
:1074100003000AAB13E903008DE80300079B94E81F
:1074200007001AF0F4FB0446FFF7C0FB204307D126
:107430002F60B9E76FF08600B6E76FF08900B3E719
:107440006FF09200B0E700BF20E3030034E30300D5
:10745000ECE103002DE9F0438FB01D46DDE916C6CF
:1074600000285CD000295AD0002A58D0002B56D0D2
:10747000BCF1000F53D0002E51D0038803F44F44C9
:10748000B4F5824F51D1DCB223F0FF03B3F5824F44
:1074900040884AD0122C01D0172C46D1C31DB2EB24
:1074A000D30F4FEAD3083AD34FEA4802571C674537
:1074B00038D8B0F5807F38D1122C18BF4FF00009B2
:1074C0004FF0000308BF1C4CCDE9081805F101017D
:1074D00014BF4C46D4F80C90CDE90B120A930D93CF
:1074E000FFF758FBC0B9CDE9058902AB08AA07CA66
:1074F00083E807000EAB13E903008DE803000B9B44
:1075000094E807001AF0A2FB0446FFF74FFB204364
:107510000ED104232B7037600FB0BDE8F0836FF0FD
:107520008600F9E76FF08900F6E76FF08500F3E772
:107530006FF09200F0E700BF34E303002DE9F04361
:1075400089B00E4615461F46DDF8488020B96FF019
:10755000860009B0BDE8F0830029F8D0002AF6D0F3
:10756000B8F1000FF3D0038803F44F42B2F5824F15
:1075700002D06FF08500ECE7DAB2122A01D0172AA8
:10758000F7D123F0FF03B3F5E24F41D14488C8F8A7
:10759000004044B9EB00B3F5807FC8F80030E8D173
:1075A000122A0DD108E0E31DB5EBD30FCFD1B4F50E
:1075B000807FDED1122A29D1354B1C681B691C44FF
:1075C0000023194670192C4414F801CD10F8012D30
:1075D0001143B2EB0C020CBF4FF0FF3C4FF0000C1C
:1075E00086420CEA030343EA0203EDD10029AED040
:1075F000002BACDA109B9D4246D82A4631463846CD
:1076000022F0BCFA119B00201D60A2E70024D7E7FE
:107610003378042B9BD16B1EDB005B08B3F5807FB6
:10762000C8F80030A5D1122A06F1010318BF4FF0A7
:1076300000094FF0400205934FF000030ABF144CBD
:107640004C46D4F80C90CDE90623FFF7A3FA0028A6
:107650007FF47FAFCDF80C90D8F800300733DB080B
:10766000029308AB13E903008DE80300059B94E83F
:1076700007001AF098FB0446FFF798FA00287FF4F9
:1076800068AF002CB6D062E76FF0890061E700BFF9
:1076900034E303000388B3F5105F0ED14388DB08A1
:1076A000103B102B0CD8084A22FA03F313F0010FF9
:1076B00014BF00206FF0860070476FF085007047A0
:1076C0006FF08600704700BF010101002DE9F04F07
:1076D0008FB01546DDE918A91E46DDF868801C9FAD
:1076E00009B300B3B8F1000F1DD0E7B1BAF1000F34
:1076F00002D1B9F1000F16D1274B26F47E129A421F
:10770000B0F802B044D1FFF7C5FF0446A8BBB5EB03
:10771000DB0F4FEADB0306D316F47C1FC6F30545E7
:1077200004D0102D03D96FF0860426E010251B9A93
:1077300095422AD8CDE9011300231022CDE9059303
:107740000DF12809CDE9033ACDE90823CDF81C90C5
:10775000FFF720FA044680B907AA04A901A801F09E
:10776000BBFC0646FFF722FA044656B958B92A462A
:107770004946404622F002FA3D6020460FB0BDE87F
:10778000F08F6FF092040025F6E76FF08904F4E7BC
:107790006FF08504F1E700BF0002C0032DE9F0415E
:1077A000069F0C461646054610B309B302B9FBB94D
:1077B0006288B3EBD20F4FEAD20819D34C220021D2
:1077C000284622F0D0F90D4B27F47E129A4212D1AE
:1077D0002046FFF75FFF044638B942463146281D70
:1077E00022F0CCF9C5F824802F602046BDE8F08156
:1077F0006FF08604F9E76FF08504F6E70002C00336
:107800002DE9F0410E4614460546002840D00029D7
:107810003ED092B10368214823F47E1383423AD1CB
:10782000AF6BF7B1C7F1100807F1280042452844B3
:1078300006D2274422F0A2F9AF630020BDE8F08110
:10784000424622F09BF91022103C3C19AA63F4D066
:10785000284605F1280119F085FB0028EED14644A1
:10786000A863102C0CD9671E27F00F073A46314643
:10787000284619F077FB0028E0D1E41BDDD03E4418
:107880002246314605F1280022F078F9AC63D4E7AE
:107890006FF08600D2E76FF08800CFE70002C003E8
:1078A0002DE9F04388461F4605468BB070B169B19B
:1078B00063B10368234923F47E1088423ED113F458
:1078C0007C1FC3F3054604D0102E03D96FF0860445
:1078D0002AE0102696422BD8FFF75CF9044618BB25
:1078E000AB6B05F12802CDE901236B6A2A1DCDE9B6
:1078F00004231023CDE9083007AB1A460390069005
:1079000005F13C0901A904A8CDF81C9001F008FC80
:107910000546FFF74BF904466DB928B9324649468A
:10792000404622F02BF93E6020460BB0BDE8F083C4
:107930006FF08904F8E76FF09204F5E76FF08504C3
:10794000F2E700BF0002C00370B504460D4625F003
:1079500099FF1C2C064608D80C2C0AD8082C2CD0D1
:1079600013D8BB23E340DB0718D4002321242B804A
:107970001EE00123174AA340134224D1122C26D023
:107980000D2CF2D14FF4F06005E0092C18D00C2C2E
:10799000EBD14FF4C060FEF737F802E08020FEF72D
:1079A00051F84FF6FF7398420CBF0E240024288034
:1079B000304625F062FF204670BD4FF48060EEE750
:1079C0004FF49060EBE700230F242B80F0E74FF497
:1079D000E060E0E700805110B8B1036813F4E07F85
:1079E00003F03F00C3F382120AD0012A0DD1084BE5
:1079F00041B103F58053012282401A600020704794
:107A0000044BF5E703F50053F5E70E20704700BF80
:107A1000688000506480005030B58BB06C466C4D6F
:107A20000FCD0FC42B686B4A2360FF238DF8013004
:107A3000D2F84C3113F4802340F0BE80D2F85021AC
:107A40008DF801309DF801306C46FF2B08BF1923DB
:107A50006846614D8DF80130FEF7A2F83220FEF73E
:107A6000DDF80FCD0FC40FCD0FC495E8030084E8F7
:107A70000300584BD3F84C21110340F18880A3F543
:107A8000FE431C88B4F5807F28BF8C248DF81940F4
:107A9000FEF780F8044484F3080450488DF8184039
:107AA000FBF700FC6846FDF7D9FF3220FEF7BCF873
:107AB0004B48FEF79FF94B4C01213520FDF78EFD19
:107AC0000020FEF7B7F8FEF74BF9236F002023F0F4
:107AD000070343F003032367FEF76CF9236F23F4D6
