:020000021000EC
:10200000C80A0020AD3101002B0303002B0303009D
:10201000A71603002B0303002B0303002B0303006D
:102020002B0303002B0303002B0303002B030300EC
:102030002B03030008E10300491703002B030300EF
:102040002B0303002B0303002B0303002B030300CC
:102050002B0303002B0303002B0303002B030300BC
:102060002B0303002B0303002B0303002B030300AC
:10207000F18C01002B0303002B030300912C0100C2
:10208000990203002B0303002B0303002B0303001F
:102090002B030300B13901002B0303002B030300C2
:1020A0002B0303005D250100A53501002B03030070
:1020B0002B030300B1A402002B03030005AF0200B1
:1020C000CD990300C9990300E5A60200E399030036
:1020D000D1990300D5AE0200D599030045AF0200A7
:1020E000598502001D870200B5AF02002B030300D3
:1020F0002B0303002B0303002B0303002B0303001C
:102100002B0303002B0303002B0303002B0303000B
:102110002B0303002B0303002B0303002B030300FB
:102120002B0303002B0303002B0303002B030300EB
:102130002B0303002B0303002B0303002B030300DB
:1021400082B030BF074BD3F8F030DB0704D5002353
:102150000193019B052B01DD02B07047019B013308
:10216000F6E700BF00ED00E0F0B5114A114C124E49
:1021700000F00105E3695F0713D40DB9334213D1B1
:1021800003EA00078F4207D10B4A1A40002A0CBF0E
:1021900000206FF00100F0BD013AEBD16FF00200BA
:1021A000F9E74FF0FF30F6E76FF00100F3E700BF0B
:1021B0008096980000000350020001000B4B70B5A0
:1021C000D96911F480310DD101244FF48072084E89
:1021D000084DF46020462C641A61FFF7C5FF346493
:1021E000EC6070BD6FF00100FBE700BF0000035022
:1021F00000100350002003504FF4003238B50F4B4D
:102200000F4C9A6641F671330122E569E3630D4B89
:102210000021DA60022360612120236105F480350A
:10222000FFF7A2FF10B92120FFF79EFF0122064B06
:10223000DA600DB10023E36338BD00BF00900050A9
:1022400000000350001003500020035070B5134CE1
:102250006061E3695B071ED40E4656F8043B8D1897
:10226000A361AE420BD10423002121202361FFF79B
:102270007BFF58B9BDE870402120FFF775BF0821EA
:102280000846FFF771FF10B10423236170BD56F8B3
:10229000043BA361E5E74FF0FF30F7E70000035090
:1022A0002DE9F84315464FF40032184B89469A66DB
:1022B00041F6713203F51C33DF69DA630122064609
:1022C00003F58053DFF84C8007F48037DA6055B9A6
:1022D000284601220E4BDA601FB10022A3F50053FD
:1022E000DA63BDE8F88306F5005404EA0804A41B89
:1022F000AC4228BF2C46494622463046FFF7A6FF8F
:102300000028E6D12644A1442D1BE0E700900050B0
:102310000020035000E0FFFF00000000000000006C
:10232000002370B5424C05468AB0E36318B10088BB
:1023300023600DF0CBFA0DF073FC3E4826F06EFCE6
:102340003D4E3E4B304633603D4B736023F01CFCEA
:102350000021304612F088F833A3D3E90023A062AD
:10236000C4E9062323F01BFCD4E9062319431043D8
:10237000C4E90601CDE900014FF0FF334FF0FF3211
:10238000A06A26F0F2FC02224FF0FF31A06A26F08C
:10239000F1FC01200DF01EF84FF4007300222949D2
:1023A000A06A26F0EBFDB0F5007F39D1002394221E
:1023B000079309933C23CDE90332059396230693B3
:1023C0005023A06A03A9089312F062F935B3287C60
:1023D0000DF038FC0546F0B9A06A26F0C4FE0DF0F9
:1023E000BFFC0CF0D9FF20B14FF48070002109F040
:1023F00033FF0CF0E1FF20B14FF40060002109F041
:102400002BFF23F097FC012026F0DCFB0E4A0F493E
:10241000A06A23F0B7FB28460AB070BDFF20D7E7BB
:102420000725F8E7AFF300800DD501552000000027
:10243000380B0020690345EC101E00200DF201004E
:10244000201E0020101C00202D5B03006D5B03008C
:102450000348044B834202D0034B03B11847704733
:102460006C2C00206C2C002000000000064B07495B
:10247000C91A891048BF0131491003D0044B0BB170
:1024800001481847704700BF6C2C00206C2C0020BE
:102490000000000010B5064C237843B9FFF7D8FFC1
:1024A000044B13B10448AFF300800123237010BD27
:1024B000BE26002000000000FC27040008B5054BE4
:1024C0001BB105490548AFF30080BDE80840FFF7A0
:1024D000CDBF00BF00000000B00D0020FC270400AD
:1024E000A3F5803A704700BF174B002B08BF134B72
:1024F0009D46FFF7F5FF00218B460F461348144A0F
:10250000121A27F01CFB0E4B002B00D098470D4BE6
:10251000002B00D098470020002104000D000D483A
:10252000002802D00C48AFF3008018F069FF2000AB
:1025300029001DF03EFE18F051FF00BF000008000A
:102540000000000000000000C80A0020C80A0020A7
:102550000028002000000000000000000F4B07B51D
:10256000D3F820140E4A1D20C2F820145B6F0122FC
:10257000C3F3C0138DF8073000210DF107030EF0EF
:10258000D9FC084B1B782BB101211D200DF107024E
:102590000EF0FEFC03B05DF804FB00BF00C003506A
:1025A00000E00350BF2600207FB50368AD4A23F446
:1025B0007F4323F00703934200F0D18009D8AA4A51
:1025C00093421FD002F51022934200F01F8104B005
:1025D00070BDA64A9342FAD1B0F805301D2BF6D152
:1025E0000389A34E13F00104A24D00F030811DF0C9
:1025F0005CFE1DF05BFEA04930681EF02CFD01233F
:102600002B70E4E79D4E304611F04EFB054618B3A3
:10261000974C9B4920681EF01EFD9A4920681EF0C9
:102620001AFD1DF042FE1DF041FE974B974A0093A4
:102630009749722320681EF00EFD96492B46964A54
:1026400020681EF008FD284600F036FC93492068FB
:102650001EF001FD00BEFDE70221307811F05EFBA7
:10266000044618B3824D864928681EF0F4FC85495B
:1026700028681EF0F0FC1DF018FE1DF017FE824BBE
:10268000824A00938249772328681EF0E4FC81493E
:102690002346814A28681EF0DEFC204600F00CFC30
:1026A0007E4928681EF0D7FC00BEFDE7A0220090FE
:1026B00003461146307811F00FFB054618B36C4CF9
:1026C0006F4920681EF0C7FC6E4920681EF0C3FCED
:1026D0001DF0EBFD1DF0EAFD6B4B6C4A00936C495D
:1026E000802320681EF0B7FC6A492B466A4A20689E
:1026F0001EF0B1FC284600F0DFFB684920681EF0A0
:10270000AAFC00BEFDE70221307811F01BFB054654
:1027100000283FF45CAF564C594920681EF09BFCE2
:10272000584920681EF097FC1DF0BFFD1DF0BEFD4E
:10273000554B564A00935649842320681EF08BFC63
:1027400054492B46544A20681EF085FC284600F068
:10275000B3FB524920681EF07EFC00BEFDE7474CEB
:102760000221207811F0DAFA054618B3404C4449AA
:1027700020681EF070FC434920681EF06CFC1DF0C0
:1027800094FD1DF093FD404B404A00934049922335
:1027900020681EF060FC3F492B463F4A20681EF02F
:1027A0005AFC284600F088FB3C4920681EF053FC88
:1027B00000BEFDE70221207811F0C4FA054600288A
:1027C0003FF405AF2A4C2E4920681EF044FC2D49E9
:1027D00020681EF040FC1DF068FD1DF067FD2A4BCF
:1027E0002A4A00932A49972320681EF034FC29497D
:1027F0002B46294A20681EF02EFC284600F05CFB80
:10280000264920681EF027FC00BEFDE7B0F8050051
:102810001B287FF4DCAE0DF10B0301220093002195
:1028200003AB0EF055FB10231D4A13619DF80B20DE
:102830000AB91C4A13611DF038FD1DF037FD0C4B21
:102840009DF80B20184918681EF005FCBFE61DF026
:102850002CFD1DF02BFD154930681EF0FCFB2C7083
:10286000B5E600BFA0000601A0000100A0000A0319
:102870009C0E0020BF260020BEDC0300422C00205E
:10288000EFDC030070DC030027DD030075DC0300D0
:102890007EDC03008DDC03008ADC0300A2DC030085
:1028A00000D0035000E00350B3DC0300F1DC030070
:1028B0000022014B1A8070478426002030B503683F
:1028C0007E4A23F47F4323F00703934289B040F00C
:1028D000F380082200211220794B0EF02BFB0446D6
:1028E00018B3784D784928681EF0B5FB77492868F9
:1028F0001EF0B1FB1DF0D9FC1DF0D8FC744B754ADD
:10290000009375495C2328681EF0A5FB7349234694
:10291000734A28681EF09FFB204600F0CDFA7149EB
:1029200028681EF098FB00BEFDE701460322142034
:102930006D4B0EF0FFFA044618B3624D62492868E9
:102940001EF089FB614928681EF085FB1DF0ADFC77
:102950001DF0ACFC5E4B5F4A00935F496A23286818
:102960001EF079FB5D4923465D4A28681EF073FB23
:10297000204600F0A1FA5B4928681EF06CFB00BEFF
:10298000FDE7014605221620584B0EF0D3FA054606
:1029900018B34C4C4C4920681EF05DFB4B49206835
:1029A0001EF059FB1DF081FC1DF080FC484B494A8C
:1029B00000934949782320681EF04DFB47492B4678
:1029C000474A20681EF047FB284600F075FA454943
:1029D00020681EF040FB00BEFDE70DF10F0104A8CA
:1029E00011F0D6F9044618B3364D374928681EF061
:1029F00032FB364928681EF02EFB1DF056FC1DF0F8
:102A000055FC334B334A00933349832328681EF027
:102A100022FB32492346324A28681EF01CFB20461E
:102A200000F04AFA2F4928681EF015FB00BEFDE7AA
:102A3000BDF8143001465BBAADF818309DF813307C
:102A400008228DF81A30FF238DF81B30FE238DF8F5
:102A50001C309DF8123018208DF81D30BDF8103054
:102A60005BBAADF81E3006AB0EF064FA054618B33B
:102A7000144C154920681EF0EEFA144920681EF027
:102A8000EAFA1DF012FC1DF011FC114B114A0093E3
:102A90001149932320681EF0DEFA10492B46104A94
:102AA00020681EF0D8FA284600F006FA0D49206882
:102AB0001EF0D1FA00BEFDE709B030BDA000010054
:102AC00036DD03009C0E0020EFDC030070DC030009
:102AD00071DD03003FDD03007EDC03008DDC0300BD
:102AE0008ADC0300A2DC030067DD03006BDD03006A
:102AF00008B503F0C3FD01280ED1124B04205A6E15
:102B00004FF480231049520358BF104A4B6601F519
:102B10001041086258BF536605F07AF800F01EFBBA
:102B20001EF048FA05F050F81EF038FA05F054FB94
:102B300000F00AFB00F0CAFB02F01EFABDE80840F4
:102B400005F0D8BE008000500090005000A000505A
:102B5000064B1B681A7A022A04D812B11B68044A71
:102B600013607047032AF9D0704700BFEC2900209A
:102B7000C80D002030B51A4D95B00DAC0FCD0FC467
:102B800095E80700292384E807000021154A0DF184
:102B90002600CDE90223144B0E22CDE904314FF477
:102BA0008073069326F0CBFF4FF4A0210F4B0DAAA4
:102BB000CDE907130F238DF8243010238DF825302D
:102BC0000B4B07A90A9320230B9301238DF8313077
:102BD000084B0948009302AB05F040FA15B030BD30
:102BE00068E00300000006500101010224000650C5
:102BF000C0260020CC0D0020380E0020831E012BA3
:102C000010B50C4619D801290DD80121174B042203
:102C10001B6C0846C3F3400303F06CFB24B1144B58
:102C200018680368F3B910BD114B18680368002BCE
:102C3000F9D0BDE8104005F0CFB98B1E012B0CD8A0
:102C40000128F0D8BDE810400121084B00221B6C80
:102C50000846C3F3400303F04DBB0029E4D001292B
:102C6000DDD0E0E7BDE810401EF013BC00C003500B
:102C7000002A002008B50449044805F023FEBDE8F9
:102C80000840FFF777BF00BF042A00205C0E002039
:102C900001481EF078BC00BF380E0020014B1A6AB4
:102CA00018681047380E0020044B834205D1044BAE
:102CB0001B7813B1C8B211F059B87047640E0020E8
:102CC000E026002030B5002503685A4A23F47F43EC
:102CD00023F0070385B0934204460295ADF80C50EB
:102CE00000F0818002F5802293420ED0A2F1827220
:102CF000934240F09C80504B1B78002B00F0978053
:102D000005B0BDE830401EF012BDB0F80530212BF3
:102D100040F08D80FF2304A91A4611E903001DF03D
:102D2000BDFA012814BF41F2FC15434B05F0FC022B
:102D300008BF1870212120790EF012F9054618B34A
:102D40003E4C3F4920681EF086F93E4920681EF03F
:102D500082F91DF0AAFA1DF0A9FA3B4B3B4A0093F9
:102D60003B49592320681EF076F93A492B463A4AE6
:102D700020681EF070F9284600F09EF83749206858
:102D80001EF069F900BEFDE7354900902379354A08
:102D90000968354800F0ECF80546002847D0274C74
:102DA000274920681EF057F9264920681EF053F97C
:102DB0001DF07BFA1DF07AFA234B244A0093244934
:102DC000622320681EF047F922492B46224A2068D8
:102DD0001EF041F9284600F06FF8204920681EF0E7
:102DE0003AF900BEFDE7B0F80530B7EE047A07EE19
:102DF000903AF8EE677AB0F8073067EE877A0133D9
:102E000007EE103AB8EEC77A67EE877AB1EE047A29
:102E100067EE877AFAFE677AFCEEE77A17EE903A69
:102E2000B3F57A7F38BF4FF47A730D4A136005B05B
:102E300030BD00BFA0000602E02600209C0E00204E
:102E4000EFDC030070DC0300DFE0030084E003003C
:102E50007EDC03008DDC03008ADC0300A2DC0300BF
:102E60000C2A0020A92C0100640E0020012208B5C4
:102E7000074B1A700022074B1A700422064B1A7077
:102E80001F22064B1A7004F025FF054B186008BD81
:102E9000452C0020E1260020442C0020432C00205B
:102EA0009C0E0020024B034918681EF0D4B800BFE6
:102EB0009C0E0020FFE0030070B50C4C0C49064648
:102EC00020681EF0C8F804F005FF0546206804F0ED
:102ED000F5FE3046FFF7E6FF284604F0EFFE2068D7
:102EE0000449BDE870401EF0B6B800BF9C0E00203B
:102EF00001E1030003E1030038B505462AF0A0FC18
:102F000000230B4A14685CB1AC4206D1A96A6BB1CC
:102F100099622AF090FC012007E02346A46AF2E7B8
:102F2000002DF3D02AF087FC204638BD1160F0E771
:102F3000A00E002010B50446B0B12AF0E9F92046F1
:102F4000FFF7DAFF10B194F82C300BB9002010BD58
:102F5000064C2368002BF9D02AF072FC2368013B51
:102F600023602AF068FCF1E72220F0E7A40E00209D
:102F70002DE9F04385B00546914698460E469DF8EA
:102F8000307009B9002F5CD12846FFF7D3FF044603
:102F9000002836D185F82C00686305F063FE864270
:102FA00033D92AF049FA2146844640F2E7304FF4FB
:102FB0007A720023E6FB0C0118F080F84FF0FF3224
:102FC000002318F07BF82B46E88611462846CDE909
:102FD00000441D4A2AF0D0FD044690B9C5E908987E
:102FE00085F82D702E632AF02BFC184A136833B332
:102FF0001A469B6A002BFBD195620023AB622AF034
:103000001AFC204605B0BDE8F08347B12B46314697
:103010002846CDE900440C4A2AF060FADCE7304645
:1030200003A92AF00FFA04460028EAD12B462846C5
:10303000CDE90077044A03992AF07AFDCCE71560C0
:10304000DBE72124DDE700BF51300100A00E0020A6
:1030500091F82C3013B50C4683B98B8ECA8E9342EF
:103060000ED243B9CDE9003320460B46124A4FF049
:10307000FF312AF041FDA38E0133A38602B010BDBB
:1030800052B191F82D3093B101230093D1E9082377
:103090002046096BFFF76CFF012384F82C30074BA7
:1030A0001A6801321EBF1A6801321A60E6E7084644
:1030B0002AF02EF9F0E700BF51300100A40E0020E5
:1030C0002DE9F041154E336833B34FF00008144F2B
:1030D0002AF0B6FB05463C6824B92846BDE8F04115
:1030E0002AF0A9BB94F82C30A3B1336884F82C8063
:1030F00013B13368013B336094F82D3013B9204687
:10310000FFF7FAFE28462AF096FBD4E9083120465C
:103110009847DDE7A46ADFE7BDE8F081A40E002050
:10312000A00E0020034B1B68002B14BF04200120BD
:10313000704700BFA40E0020024B1868B0FA80F060
:1031400040097047A40E002008B503481DF02DFF6C
:10315000BDE808401DF063B80CE2030001481DF013
:1031600024BF00BF0CE2030007B508201DF0F2F8F1
:1031700002238DF80030054B684601931DF099F845
:10318000082003B05DF804EB1DF0EFB8006A1810DA
:103190000348044A0449121A92101DF0C7B800BF30
:1031A00040210100202301000028002008B500F084
:1031B0002FF8FFF7EDFF124B12498B4212D300207C
:1031C000114B12498B4218D3FFF78EF9186850F84B
:1031D0002240586840F82240013298688242F5D374
:1031E0000C33EAE70022F8E71C6844F822000132B9
:1031F0005C68A242F8D30833E4E70022F8E700BF96
:1032000004280400102804001028040010280400DA
:103210004FF40041134B144A70B59A60D3F88820DC
:10322000124D42F47002C3F88820114A05F500548B
:1032300091664FF0FF3222664FF6DF72626602221D
:10324000C3F8D020BFF34F8FBFF36F8F4FF44036DA
:10325000032004F025FD0320E66004F005FD2E6147
:1032600070BD00BF00ED00E00020010000800044C0
:1032700000900050014B1860704700BF142A0020D6
:10328000054B1860054B1B6F03F00703032B01D19F
:1032900029F0BEB9704700BF1C2A002000800050F2
:1032A00000239B6AB3F5903F03D21968064A914206
:1032B00003D00023037083607047012202709A6874
:1032C0009B694260F7E700BF07B0CD5E00239B6AB1
:1032D00010B5B3F5903F11D219680A4A91420DD149
:1032E000094C227812F0FD0F01D0002010BDDB69DF
:1032F00098470028FAD101232370F6E74FF4817034
:10330000F4E700BF07B0CD5EE2260020024B034A7F
:103310001A601DF051BE00BF0000002002020FF035
:10332000BFF34F8F0549064BCA6802F4E0621343AE
:10333000CB60BFF34F8F00BFFDE700BF00ED00E0A3
:103340000400FA05002307B5294801931DF02DFE5E
:103350004FF44073012204216846ADF8003000F0BC
:1033600095F80122234B0520C3F8442401A92AF033
:1033700043FB002839D1204BD3F8F02042F0010262
:10338000C3F8F020D3F8FC2042F08072C3F8FC2090
:103390001A4AA3F55D431A60019B194A03F5D52328
:1033A00003F2FC43B3FBF2F3164A013B1361022321
:1033B000C2F8F0304FF48073C2F804334FF060432A
:1033C000114AC3F8B02F114AC3F8802ED3F8002E4B
:1033D00042F48072C3F8002EFF2283F82020D3F835
:1033E000002E22F48072C3F8002E03B05DF804FBB7
:1033F0000CE2030000D0035000ED00E0FF030040AA
:10340000F8590D00000004E055CEACC509000100DC
:103410004FF06043D3F8802E30B5D20715D5012484
:103420000B4D8440D5F8FC2042F08072C5F8FC209A
:10343000D3F8002E2243C3F8002E53F82020002A90
:10344000F0D003F82010002030BD1120FCE700BFB1
:1034500000ED00E008B50C481DF0A7FD192004F0B0
:1034600011FC28B1192004F01BFC192004F0FCFB0E
:103470001A2004F007FC28B11A2004F011FC1A20CD
:1034800004F0F2FB002008BD0CE203002DE9F0413E
:103490000E461746054610B30F2922D80378DBB134
:1034A000013BDBB2022B1CD8104AD35C6A78D340B4
:1034B000DB0716D50E4BD3F81043A4B92AF0C0F998
:1034C00080463A462846314603F0CEF940462AF077
:1034D000B2F92046BDE8F08140F2FF13E6E722246E
:1034E000F7E72124F5E70224F3E700BF58E10300E2
:1034F00000C0035010B5044608B30378E3B1013BA4
:10350000DBB2022B1DD8104AD35C6278D340DB07B4
:1035100017D52AF095F90122617823788A40302165
:103520004B4341F2100103F1A04303F570335A50AD
:103530002AF081F9002010BD40F2FF13E5E72220B8
:10354000F9E72120F7E700BF58E1030010B5044672
:1035500008B30378E3B1013BDBB2022B1DD8104A5C
:10356000D35C6278D340DB0717D52AF069F90122D2
:10357000617823788A4030214B4342F2100103F1F5
:10358000A04303F570335A502AF055F9002010BDBE
:1035900040F2FF13E5E72220F9E72120F7E700BF1B
:1035A00058E10300F8B503F055F90C250127164B37
:1035B00000F0553424F05024144EC3F820440CB3CA
:1035C00014F001000BD0002024F0010405FB00637F
:1035D0005A68002AF3D09968C0B29047EFE72346B3
:1035E000013020284FEA530301D0DA07F8D507FA53
:1035F00000F30F2824EA0304E8D9103805FB006320
:10360000B433E5E7F8BD00BF00E00350A80E00208A
:103610002DE9F04F9A46564B85B01B7806460F466B
:103620001546DDF83C909DF844B0DDF85080002B45
:1036300000F09780072A00F296800E9B002B00F086
:103640009280B9F1000F00F08E80129BB3F5006FED
:1036500000F38980012803D1109B002B00F08380A8
:10366000444B03EB05131B7B002B7ED0424C1022F6
:103670000021684626F063FA04EB45141022A7BB2C
:103680003946204626F05BFA43F210036380BBF113
:10369000000F03D1E37843F00303E370364A0E9B37
:1036A00002EB451CCCE90193129B6901581E9DF861
:1036B0004C30C0F30A0003F003039B0643EA001EEC
:1036C00053582E48012E00EA03004EEA0003CDF8BD
:1036D00000A0535017D0B8F1000F2ED19CF8023043
:1036E00068F304138CF8023027E00021204626F00E
:1036F00026FA4FF444736380BBF1000FCED1E37818
:1037000043F03003C9E713230CF1100ECCF80C3052
:103710009CE80F008EE80F006FF00301DCF81C201E
:10372000109B61F39F02012FCCF81C20CCF81430C1
:1037300003D1CCF81890CCF8043000270D4A2901A9
:1037400002EB051342F80180159A28465A60694633
:1037500022469F605E7302F061FE384605B0BDE808
:10376000F08F0748FAE70748F8E70748F6E700BF91
:10377000E326002010110020101000200F80FFF31E
:10378000028000F0018000F0078000F038B5124B95
:1037900005461B78DBB1E0B12AF052F80F4A00234E
:1037A0001146147B54B92B6001251A0101EB031358
:1037B0001D738C502AF03FF8204638BD0133082B8A
:1037C00002F11002EDD12AF036F80548F5E7054878
:1037D000F3E70548F1E700BFE326002010110020C1
:1037E000048000F0028000F0018000F038B52AF07B
:1037F00027F8002305460B4A147B6CB90133082BCC
:1038000002F11002F8D102F0B5FD074B28461C70FA
:103810002AF011F8204603E028462AF00CF8034865
:1038200038BD00BF10110020E3260020058000F005
:103830000D4B10B51B78044693B1072812D829F018
:10384000FFFF0A4B03EB04131A7B2AB100241C73FD
:1038500029F0F1FF204610BD29F0EDFF0448FAE7FA
:103860000448F8E70448F6E7E3260020101100209A
:10387000068000F0028000F0018000F0154B13B5C7
:103880001868002301908DF8043029F0D9FF124BFD
:103890001C7824B129F0CFFF104802B010BD0122DE
:1038A0001A7029F0C8FF0E4B01A81C731C7783F80F
:1038B0002C4083F83C4083F84C4083F85C4083F80C
:1038C0006C4083F87C4008238DF8073002F076FDC9
:1038D0002046E2E75BE10300E3260020038000F0DE
:1038E00010110020F8B50D4D2D7885B1072810DC9A
:1038F0000B4D060105EB0014277B67B1AB5100258A
:10390000069BA560636002F089FD2846F8BD054866
:10391000FCE70548FAE70548F8E700BFE326002082
:1039200010110020028000F0018000F0078000F0FC
:103930000A4A08B512785AB107280BD8084A02EB90
:1039400000131B7B43B1002102F02AFD002008BDBB
:103950000448FCE70448FAE70448F8E7E3260020B7
:1039600010110020028000F0018000F0078000F0BC
:103970000A4A08B512785AB107280BD8084A02EB50
:1039800000131B7B43B1012102F00AFD002008BD9A
:103990000448FCE70448FAE70448F8E7E326002077
:1039A00010110020028000F0018000F0078000F07C
:1039B000184B2DE9F0411F6D5B6D1F4000D5FEE7F0
:1039C00001260025144CDFF85880374218D02368B0
:1039D000C8F85060A3B1A168284601316268A160AF
:1039E0009847637B012B0BD150B90C4B03EB45136C
:1039F0001A7B60F341021A731A7F60F341021A774F
:103A00000135082D4FEA460604F11004DDD1BDE86A
:103A1000F08100BF000004501011002010100020A1
:103A2000002004502DE9F04F144606460D469B46F3
:103A3000C36B87B001225B6902A960689847F36B8A
:103A400001225B6903A92846984702A81DF0A8F83F
:103A5000074648B10023A37563754FF0FF33A36099
:103A6000002007B0BDE8F08F03A81DF0A6F80123E1
:103A7000A375237E04EBC303DD611F846368AB423F
:103A80000ED1206003A81DF0BAF84FF0FF33207567
:103A9000A360237D043B022B26D80023A375DFE718
:103AA00023681A1A53425341A37503A81DF0A7F8BF
:103AB000237D834218BFA77503A81DF082F807462F
:103AC00002A81DF07EF8874218BF002303A818BF84
:103AD000A3751DF07EF8074602A81DF07AF887420C
:103AE0001CBF0023A375D4E703A81DF06AF880B1BA
:103AF000F36B022228465B6904A9984704A81DF0CD
:103B00006FF80346207D032839D8DFE800F0383805
:103B1000040903A8F3E7CC22237E04EBC3031A8431
:103B200001F0A2FA109B187003A8277E1DF03DF843
:103B300004EBC70787F82200237E03A804EBC30326
:103B4000B3F8209093F822701DF03BF8804603A84C
:103B50001DF03FF88246B8F1000F15D0F36B02223A
:103B600028465B6904A9984704A81CF0FEFF60750D
:103B7000637D6BB90023A3754FF0000838E0227E07
:103B800004EBC2021384CBE703A81CF0D9FFEEE7D5
:103B900094F81680B8F1000FEED0B9F1000F09D1FA
:103BA000DFB10123627EE375002A44D19F4218D120
:103BB000677614E0736C05EB0A02594285EA02004D
:103BC00008421CBF0021A175591E0A409B1A994545
:103BD000D0D8A37D002BE3D1CEE7E37D43B94FF0EE
:103BE00000084B465246294630461CF017FDA0609F
:103BF000A27D12B123694B4423611449237E0978C5
:103C000099421ED901332376BBF1000F1BD0D2B1EC
:103C1000E37DC3B1B8F1000F15D1032F13D0A16814
:103C20004B1C10D0109B2246009330460123FFF717
:103C3000F9FEA07507E0012FDAD0032F08BFA376A5
:103C4000CDE70023A375A07D0BE700BF80E1030053
:103C50002DE9F04F0E46984600238BB004464FF0F6
:103C6000FF31104617468DF8133001F0E7F9B6F52D
:103C7000801F3BD3B21C53D1E56A6B1C57D1204641
:103C8000616A1CF011FC0546B31C18BF0123DFF864
:103C900010910193636A626C0293236805A902FB89
:103CA000053AE36B05225B695046984705A81DF06D
:103CB00012F81DF035F850461DF03DF84FF0000B9E
:103CC000824601464B1C05D0636C81EA0A025B42C6
:103CD000134232D0294620461CF0E6FB029BAB4241
:103CE0004DD0BBF1000F4DD10546D3E7314605AAB3
:103CF00004F108001CF0A2FE0146481C10D0384612
:103D000001F09CF90122394620460DF113031CF005
:103D1000D7FC28B19DF8133088F80030002003E06C
:103D2000237C002BA8D12D200BB0BDE8F08F236899
:103D3000ED1A636CB5FBF3F5A6E7484601F07EF992
:103D40000DF1130349462046019A1CF0B9FC0346C5
:103D500090B1B21C03D0D9F80020B2420CD19DF82A
:103D6000132003930D4B88F8002049461A68384603
:103D700025F04DFE039B9B46D9F80810A2E7BBF146
:103D8000000FD0D0B6F5801FC8D2314698F8003069
:103D90007A6804F1080001F07FF8BFE77CE10300D6
:103DA000041800202DE9F3410446174698460E46B4
:103DB000194D816AE36A8B422AD04B1C18E02846D1
:103DC00001F03CF90122294620460DF107031CF0C1
:103DD00077FC30B14346294620469DF80720B84776
:103DE000B0B1A9684A1C05D0012E0AD0E36A9942F5
:103DF000E5D10DE0696820461CF0E3FB012E014689
:103E0000D8D16B6881EA0302636C5B421A42D1D05D
:103E100002B0BDE8F08100BFD81700202DE9F041C5
:103E2000036B9046826B07689A4288BF8363426C3B
:103E3000436A90B002FB0377C36B0E46052201A9CB
:103E40005B6904463846984701A81CF044FF0128E6
:103E50000146307057D0656CE26B2368606AD2F817
:103E600014C005FB0030052206A9E04706A81CF097
:103E700032FF01284FF0000523D0D4E90A32012196
:103E80009342CDE90B458DF834800E958DF83C10AA
:103E90002AD1194620461CF094FB236B626C143324
:103EA0009B1AE06223630C9B53B99DF83C303BB1F5
:103EB000626A616C2368E06B01FB02311CF0C3FE97
:103EC0000C9DE36B05225B6901A93846984701A860
:103ED0001CF001FF30702846236BA26B9A4288BF0A
:103EE000A36310B0BDE8F081237C33B91C490BAA51
:103EF00004F1080001F01EF8D5E72046194A0BAB83
:103F0000FFF750FFCFE7237C23BB2246164904F17D
:103F1000080001F00FF8616A20461CF0E6FA616AB9
:103F2000421C20461CF0AFFA054620B9236B626C98
:103F30001344143B23632046A16A1CF042FB236810
:103F4000A062C01A636CB0FBF3F0606220461CF004
:103F50007BFBB6E700232046044AFFF723FFDAE79E
:103F600031470100AD46010049070300E5060300A3
:103F700073B50D46D11E4A421C461B7E4A419A42E9
:103F800026D129682368994222D3636899421FD8B1
:103F9000114E0DF107033246FFF75AFEC0B97268A1
:103FA0006B689A4214D19DF80730DA1E5342534190
:103FB000227E93420CD1636901336361D4E9032308
:103FC000934205D22968A26842F823100133236185
:103FD000012002B070BD00BF301800202DE9F04F65
:103FE0009A468BB09DF85030DFF850B10293DBF861
:103FF0001030804653450D461646C0F09980D14694
:10400000DBF804300193B9F1000F00F08D80D8F88F
:104010003C3001225B6907A90198984707A81CF06A
:10402000CCFDDBF80030984240F0858007A81CF0FA
:10403000D0FD0428074614D107A81CF0D1FD019B30
:10404000029A04463B44002A3FD1864212D91446C4
:10405000361A404601991CF0B4FAA9EB0409019004
:10406000D1E7D8F83C3002225B69019808A998474B
:1040700008A8E2E7841B544528BF5446032C03EBF1
:104080000607AAEB040A4FEA94021CD9D8F83C3080
:10409000294638465B69984724F0030304F0030679
:1040A0001F441D44002ED4D0D8F83C3001225B6957
:1040B00008A9384698473246284608A9354425F0CD
:1040C000A6FC0026C5E72646ECE7074600F00302FB
:1040D000039203442A1804920593049BDD1B059B5D
:1040E000D81B039B9F420FD1002FB2D0D8F83C3091
:1040F000012208A95B6998473A46284608A925F095
:10410000F4FC78B93D44A4E7D8F83C30012208A972
:104110005B6998470422284608A925F0E6FC08B9FF
:10412000043FDAE74FF0360948460BB0BDE8F08FA0
:104130004FF06309F8E74FF06F09F5E75C180020CE
:104140002DE9F0410F4616469846044688B060B304
:1041500090F83450FDB101211CF06BF900210E9B49
:10416000CDE90511CDE902379DF83C30CDF804804A
:104170008DF81C30237C04968BB90D4901AA04F1FB
:10418000080000F0D7FEDDE90553E06B002E08BF04
:104190001D461CF0E7FA284608B0BDE8F08120462D
:1041A000044A01ABFFF7FEFDEDE70546F3E700BF6C
:1041B00013070300713F01002DE9F04F99B00F463E
:1041C00009920A69416C0E931439D31DB3FBF1F3C4
:1041D000013302EBC302036B04469342C0F00D822D
:1041E0000023DFF820940D93E36A484619460793AD
:1041F00000F024FFD7E9033604930E9B022B4ED127
:10420000CC2E40F08A81099B002B42D039462046B3
:104210001CF006FB656C079A6B1E13401490ED1A98
:10422000E36B01225B6916A97868984716A81CF011
:10423000C8FC00280CBF04230823782E06933DD920
:10424000012300254FF0080A05933B6805990E9855
:10425000C9F80030C9F810601CF0D5FC4FEA9A0389
:1042600010930023DDF81CB089F814000B930F9312
:1042700008930C93616C4A1E0BEA02028B1A002E03
:1042800038D05544AB4240D8236B5B1A13442363A8
:10429000ABE0049B1B68149308230693D0E7656C7E
:1042A000079A6B1E1340782EA5EB030516D8FB7DED
:1042B0007BB9099B002BB3D104230693331DAB427A
:1042C00010D9A6B1082DBBD804250023AA46059312
:1042D000BBE7099B002BA3D10823EEE7099B002B2A
:1042E0009ED1D9E7002505954FF0040AADE70425D6
:1042F0000596F9E75345C7D3B0460BEB0A03039382
:10430000089B002B18BF032313E0A3EB0A039E4274
:10431000B0460BEB0A0228BF98469E420392EFD9A3
:104320000123D9F8102089F81730964271D1C9F8C5
:1043300004B0089399F81730002B6CD099F8182026
:104340000899D31C09EBC3030132C3F804B0A3F8E6
:104350000880997289F81820B8F1000F14D00E9BCC
:10436000022B5BD10B9B7BB90F9B4344032B0BD9D7
:10437000E36B01229B69039814A99847054600281E
:1043800040F03D8101230B93089B16A80193059BE8
:10439000009399F814204346396800F005FEE36B5A
:1043A00058469B69109A16A99847051E0D9B18BF81
:1043B0005B4652460D935946434620461CF02EF963
:1043C000236B08F10302A3EB0A0322F003029B1AFA
:1043D000C9F808002363002D40F011810F9BDDF820
:1043E0000CB04344A6EB08060F93594620461CF038
:1043F000E8F800258346002E7FF43CAF814A3968F7
:10440000936804F10800E36252680E9B00F044FDDB
:10441000DEE002238DE7C9F804B09DE7099B002B7D
:1044200030D1049BB8F1030F43440A9327D9DDE947
:104430000301E36B4FEA98029B6998470546002801
:1044400065D118F003025FD0049B28F003052B44CC
:104450000493039B1D444FF0FF33049915A8159353
:1044600025F0D5FAE36B28469B69012215A99847E8
:1044700005460A9B0493002D86D0039B99E742468C
:10448000039DE8E7039B0A9307F120031193FB7D4B
:1044900078689BB100233D7E0C9AD9B28D4211D928
:1044A000119903F1010C31F83310914226D9069984
:1044B00007EBC303D8690A44104403E00C9B069A37
:1044C00013441844E36B01225B6915A99847159BB7
:1044D000012213930C9B0A9804330C93E36B13A9EA
:1044E0009B699847039B0A9A43449B1A042B0546F1
:1044F00007D978B9134604330A93C8E76346521ABA
:10450000CBE70A9B0393B6E70A9B04933CE70A9B1D
:104510000493B2E70A9B0393AFE7702604F1080304
:1045200003932368079A606CA2EB030ABAFBF0FAC4
:1045300000FB0A301CF0FFFBE16A804620461CF0BD
:1045400040F8A26A82424AD0626CD9F80830511E03
:104550000B40216B2568891A0B4423630D9BE06295
:104560005D1BB5FBF2F5AA4536D1079BB3EB080AF4
:1045700012D0E36B4FEA9A0241469B699847834603
:10458000E36A079A5344E362236B03989B1A4344FC
:1045900023631CF024FADA462368616CE06B01FBAC
:1045A00005311CF03DFB20461BF04EFF20461CF061
:1045B0004BF82063BAF1000F11D03A69616CD31D3A
:1045C0001439B3FBF1F3013302EBC3029042A8D2DA
:1045D000304619B0BDE8F08F4FF0000ADCE73A69C9
:1045E000616CD31D1439B3FBF1F3013302EBC30249
:1045F000236B9342BFF4F8ADEAE71C26E8E72E46AA
:104600008CE700BF041800202DE9F3471E464369DC
:104610000446B342884617469DF828903DD30025AE
:104620008DF8075020461BF0DBFED4F830A0824501
:104630000AD2236AB5EB430F06D2002220460DF1C1
:104640000701FFF7EBFB30B39DF80730012B05D1D5
:10465000002220460DF10701FFF7E0FBB9F1030F3F
:1046600006D0314620461BF0A6FE256B854218D3A6
:104670000D4D4FF0FF31284600F0E0FC4B46002284
:1046800029462046C5E90376C5F8008002B0BDE89A
:10469000F047FFF791BD0135C4E7622002B0BDE8E5
:1046A000F0871C20FAE700BF30180020032A2DE90C
:1046B000F34106460D4617461C4606D1237A012BC8
:1046C00023D0012002B0BDE8F081DFF860800968E6
:1046D00042460DF10703FFF7BBFA60600028EDD1F9
:1046E0009DF80720237A032AE8D0D8F804106A68D6
:1046F0009142E3D1012B2969D4F80CC007D172692A
:104700000CEB0103934202D92074207CDAE70831D4
:104710006144E1603B46012229463046FFF74CFDEB
:1047200060600028CAD00020CCE700BF301800200D
:104730002DE9F341089C032A1746266806D1237AFF
:10474000012B24D0012002B0BDE8F081DFF8908079
:10475000304642460DF10703FFF77AFA6060002801
:10476000EDD12568D8F80400A96AD5F844C04840BE
:10477000CCF100031840227AE1D1012A09D1E26884
:10478000D8F8103013447269934202D92074207C07
:10479000D9E72868EB6A1B1A081AB3FBFCF3B0FBD5
:1047A000FCF083420BD1706CF36A421E1340326BF3
:1047B000121A1344284633631BF003FFE862D8F84B
:1047C0001020E36808321344E36001223B460449A9
:1047D0002068FFF7F1FC60600028B0D00020B2E74D
:1047E000301800202DE9F04F4FF0FF334FF6FF72E5
:1047F0000025044600F10806C0E909238BB0C36216
:104800000562056330460F461CF0E9F820461BF0B0
:104810001BFE20BB204639461BF096FE20461BF0AF
:1048200013FE20BB5E200BB0BDE8F08FE26B236867
:10483000606CD2F814C000FB0530052205A9E047E2
:1048400005A81CF048FA012828D1294620461BF06B
:104850004CFE421C294620461BF015FE0135E3693B
:104860009D42E3D320461BF0EFFD0028D2D0002567
:104870004FF0FF394FF6FF73CA46A846C4E9085304
:10488000E369984514D3A5EB0905012D36D84FF6F9
:10489000FF72636A934246D16720C4E71CF045FA71
:1048A0000028DBD0294620461BF01FFE0246D1E738
:1048B0002368E26B606C576900FB0830052205A98C
:1048C000B84705A81CF007FA834605A81CF0DAF9DA
:1048D000074658461CF024FA68B1574538BFC4F85B
:1048E0002480B94528BFB946BD4238BF3D46BA46C7
:1048F000236A0133236208F10108C1E74FF6FF7311
:1049000000256362E3699D42C1D2676C2068E36B56
:10491000052207FB05005B6905A9984705A81CF05F
:10492000B1F90135EEE7E26B676C2068694607FB79
:10493000030055690522A84768461CF0A3F9626A7E
:104940002368606C504D00FB02301CF0F4F94FF00E
:10495000FF33A062E3622A466FF00101204605ABF7
:10496000FFF776F900284FD1AD6829462046E56269
:104970001BF046FD206320B92046E16A1BF021FEB2
:10498000E062294620461BF01CFE0546A36A9D42B4
:104990003CD16569626CE91C143AB1FBF2F14FF04D
:1049A000000805EBC1050335B5FBF2F5C14602353C
:1049B000E36999453CD3A8455AD22046616A1BF069
:1049C00073FD0027064604F1400AB84512D8626C10
:1049D0002368694602FB0639E36B05225B6948469A
:1049E000984768461CF04EF9534602464946E06B2C
:1049F0001CF0A3F9314620461BF056FD0137AF42AB
:104A00000646E2D364200EE7A56AAEE729462046B3
:104A10001BF0F6FC236B294603440746236320461C
:104A20001BF0CFFD0546002FB0D1C4E90B07ADE761
:104A3000636C2768052203FB0977E36B05A95B69B3
:104A40003846984705A81CF046F91CF069F960B192
:104A500038461CF070F9014620461BF0D1FC636C0F
:104A6000143B984208BF08F1010809F101099FE7CA
:104A700030461BF0B4FF002320461946034AFFF7D7
:104A800091F90020CFE600BF30180020AF060300E8
:104A90000023624A2DE9F04117680E460446136070
:104AA00018B921252846BDE8F08190F834500DB39F
:104AB00009680268914240F0A98071684268914299
:104AC00040F0A480B1688268914240F09F80F16814
:104AD000C268914240F09A8031694269914240F047
:104AE0009580B169C26B914240F0908072691D4619
:104AF0008261D7E750222946D0F8388025F01FF888
:104B0000D6E90212336804F1080023607368C4F820
:104B100038806360336963617369A3611BF071FF5F
:104B2000B36904F14000E3639B68984794F843201D
:104B300020B1E561002AB4D05B25B3E7656C002D98
:104B4000F7D06668B6FBF5F3E361002AA9D0B54259
:104B5000F2D82268B2FBF5F105FB1122002A57D1E9
:104B600005FB1363002B53D120461BF039FCA369CE
:104B7000043303449E424DD340F634726369CC3B08
:104B8000934249D8B5F5805FD6D3032120461BF068
:104B900050FCD4E90001E36B1B6898470546E36BC2
:104BA0000220DB6898471DB1002384F834301DE0F3
:104BB00039462046FFF716FE6428054604D13946DB
:104BC0002046FFF70FFE0546636C143B002DEBD12A
:104BD000226A204602FB03F61BF002FCA3690433A1
:104BE00003449E4206D284F834505A25E06B1BF0F1
:104BF000B9FD57E70123D4E90001094A84F83430AC
:104C00001368013313601BF096FFEFE75D2549E75A
:104C1000592547E75A2545E75F2543E794110020CA
:104C2000901100202DE9FF410F4690461E46054693
:104C300098B390F8343093B3B1F5801F31D21A4C49
:104C400002211BF0F6FB2246394628460DF10F03E0
:104C5000FEF7FEFF024678B1012342460093394633
:104C600033462846FFF7D0FC0446E86B1BF07AFD7C
:104C7000204604B0BDE8F0819DF80F30012BEBD148
:104C80002169B142E8D10093414633462846FFF7F7
:104C9000A5F904460028DFD1E7E72124E8E711243D
:104CA000E6E72924E4E700BF5C1800202DE9FF4176
:104CB0000C4616461F46054680B390F834307BB349
:104CC000B1F5801F2ED2DFF8608001211BF0B1FB0F
:104CD0002146424628460DF10F03FEF7B9FF044670
:104CE00070B99DF80F30012B11D1D8F81030BB42AC
:104CF00012D10246009031462846FFF76FF904466C
:104D0000E86B1BF02FFD204604B0BDE8F081022BBC
:104D100014BF2D246024F3E76324F1E72124F2E794
:104D20001124F0E72924EEE75C1800202DE9F04378
:104D300085B00C4617461E460546DDF8308098B310
:104D400090F8343093B3B1F5801F31D2DFF864901E
:104D500001211BF06EFB21464A4628460DF10F0348
:104D6000FEF776FF044688B99DF80F30012B14D169
:104D7000D9F8102006EB08039A4213D3009043465B
:104D8000324639462846FFF729F90446E86B1BF0FE
:104D9000E9FC204605B0BDE8F083022B14BF2D24AA
:104DA0006024F3E76324F1E72124F2E71124F0E71C
:104DB0002924EEE75C1800202DE9F3411F4600236B
:104DC0000C46164605463B6050B390F834304BB362
:104DD000B1F5801F28D2DFF8548001211BF029FB98
:104DE0002146424628460DF10703FEF731FF0446EF
:104DF000A0B99DF80730032B10D0022B0AD1012354
:104E0000336004233B60E86B1BF0ACFC204602B02F
:104E1000BDE8F081D8F810303060F3E72D24F2E7D8
:104E20002124F3E71124F1E72924EFE75C1800209F
:104E300030B50C46054685B028B390F8343023B31E
:104E4000B1F5801F23D202211BF0F3FA0DF10F03FD
:104E5000214628460F4AFEF7FBFE034688B99DF817
:104E60000F20032A0DD00322214600920246284635
:104E7000FFF7CAFB0446E86B1BF074FC204605B044
:104E800030BD2D24F7E72124F8E71124F6E7292483
:104E9000F4E700BF5C1800202DE9F043466886B3B4
:104EA000056898464FF0000CA946AE4655F83C40C0
:104EB0000CF1010CC4F31307013401D0B94217D02F
:104EC00066450EF1080EF1D12F46002403E0A642FC
:104ED00007F1080712D055F8343001340133F6D108
:104EE000C1F3130141EA0851C7E90012BDE8F0839C
:104EF00041EA0851CEE90012BDE8F083B8F1030F92
:104F000003D101230372BDE8F083002303E09E4236
:104F100009F10809F5D055F833400133C4F30754BB
:104F2000032CF4D1C1F3130343EA0853C9E9003257
:104F3000BDE8F0832DE9F0410646406882B0C0B17B
:104F40000F4690460024336853F8345003EBC403F3
:104F5000C5F30752C5F31301013504F1010406D06E
:104F60005B683046CDF80080B84710B17068844265
:104F7000E9D302B0BDE8F081024B1968024B186812
:104F8000FFF786BD202A0020402A002008B528F01F
:104F90004EFC014B186008BD88180020014B1868B2
:104FA00028F040BC8818002073B504462248012A26
:104FB00000EAC1119DF8185023F07C4007D9961ED5
:104FC000012E28D9073303F07F03194308E09DF829
:104FD0001C300A43DB0603F0C053134343F0604127
:104FE0000023C4E900108DF80730B5B12022214616
:104FF0000DF107001BF0BBFE1A220DF10700211D69
:105000001BF0B5FE082063689DF8072043EA826321
:10501000636002B070BD1143E2E71B220DF107008F
:1050200021461BF0A4FE23689DF80720042043EAD4
:10503000C2632360EDE700BF80FFFF0738B5094B6F
:105040000D461A680021044624F079FD00234FF034
:10505000FF322383C4E900252361A260E382A376A3
:1050600038BD00BF7CE103000138C0B205289ABFFB
:10507000014B185C0120704781E103002DE9F041EC
:105080000746154600240E46596888B0490A01298A
:1050900022464FEA510104F10104F8D8DC789978EE
:1050A00024031B88C90201F4006104F480540C43FA
:1050B000C3F30A035203234492B24FF000089C1832
:1050C000274B6FEA0444039325F07843ED4302A98C
:1050D0000DF107001B2202938DF807801BF047FE9D
:1050E0009DF80720029B02A943EAC2630DF1070065
:1050F0001B2225F07845049302958DF807801BF05C
:1051000036FE9DF80720029B6FEA144443EAC2630F
:1051100005934FF0FF330794069307A9BB6901225B
:1051200006F110009847BB6905A90446012206F163
:1051300008009847BB69404518BF044604A90122EE
:10514000301D98470122404518BF0446BB693046D0
:1051500003A99847404508BF204608B0BDE8F08144
:1051600001009AB2044BD3F88420D206FBD4D3F8C2
:105170008400C0F3811070470040005038B5184BD0
:105180000546D3F824010C4600F00700062823D872
:10519000DFE800F0040A121A1E0E1600012305B102
:1051A000286004B1236038BD27F00CFA0523F6E728
:1051B00027F008FA0623F2E727F044FA0323EEE784
:1051C00027F040FA0423EAE727F038FA0223E6E75B
:1051D00027F03EFA0723E2E700231846DFE700BF87
:1051E0000080005038B5104B0546D3F800310C460E
:1051F00003F00303022B0BD0032B0DD0012B0FD197
:1052000027F020FA032305B1286004B1236038BDDC
:1052100027F022FA0823F6E727F01AFA0723F2E725
:1052200001230020EFE700BF0080005038B5104B8D
:105230000546D3F820310C4603F00303022B0BD0B4
:10524000032B0DD0012B0FD127F0BCF9052305B19D
:10525000286004B1236038BD27F0F4F90323F6E792
:1052600027F0ECF90223F2E701230020EFE700BF6B
:105270000080005038B5104B0546D3F840310C463D
:1052800003F00303022B0BD0032B0DD0012B0FD106
:1052900028F0C2FA092305B1286004B1236038BDA3
:1052A00027F0DAF90823F6E728F0B9FA0B23F2E73A
:1052B00001230020EFE700BF0080005038B5104BFD
:1052C0000546D3F860310C4603F00303022B0BD0E4
:1052D000032B0DD0012B0FD128F09EFA092305B125
:1052E000286004B1236038BD27F0B6F90823F6E73B
:1052F00028F095FA0B23F2E701230020EFE700BF27
:10530000008000502E4B98424AD022D82D4B984214
:1053100040D014D82C4B984239D00AD82B4B984205
:1053200032D02B4B98422FD02A4B98422CD00020C1
:105330007047294B9842FAD1284B186F7047284B79
:1053400098422AD0274B9842F1D1244BD3F88000C1
:105350007047254B98422BD009D8244B984223D034
:10536000234B9842E3D11D4BD3F88C007047214B5F
:10537000984221D003F5740303F510539842D6D117
:10538000164BD3F898007047144B986D7047134B29
:10539000586E7047114B586F7047104B986F70479D
:1053A0000E4BD3F8840070470C4BD3F8880070473D
:1053B0000A4BD3F890007047084BD3F8940070471D
:1053C0000048E8010024F400C0CF6A0080841E0079
:1053D00000093D0040420F00405DC6000080E00F24
:1053E000C0EA210180BA8C01007E560380D54302B9
:1053F000006CDC020090D00373B50D4600210E4B0B
:105400000191D3F88041064604F00304012C09D031
:10541000022C0CD00C460EB1019B336005B12C6000
:1054200002B070BD01A8FFF701FF0F24F3E727F0DA
:1054300005F90190EFE700BF0080005038B5104B30
:105440000546D3F840320C4603F00303022B0BD081
:10545000032B0DD0012B0FD128F0DEF9092305B164
:10546000286004B1236038BD27F0F6F80823F6E77A
:1054700028F0D5F90B23F2E700231846EFE700BF29
:105480000080005038B5144B0546D3F800020C4696
:1054900000F0070004281BD8DFE800F003090D1115
:1054A0001500012305B1286004B1236038BD28F040
:1054B000B3F90923F6E727F0CFF80823F2E728F03D
:1054C000AEF90B23EEE727F0A3F80E23800AE9E7F5
:1054D00000231846E6E700BF0080005010B40D4CD2
:1054E0000B46D4F8204204F00304012C0AD0022C0D
:1054F0000CD008B1002101600BB100221A605DF8E8
:10550000044B70475DF8044BFFF790BE5DF8044B09
:10551000FFF7B0BE00800050B0F5207F1FD009D843
:10552000B0F5007F15D003D868B1B0F5C07F0AD0C0
:1055300000200CE0B0F5607FFAD10B4BD3F880006F
:10554000C0F3011003E0084B186FC0F303300130C3
:105550007047054BD3F89000C0F30460F7E7024BA7
:10556000186FC0F38020F2E7008000504FF4003243
:105570000E4B014610B500209A66FFF7CDFF484359
:1055800041F671320A490B4B884294BF002001203A
:10559000DC69DA639A6822F4401242EA00529A60A7
:1055A000E20344BF0022DA6310BD00BF0090005048
:1055B000005A620200000350420910B50FD0012AC0
:1055C0000FD00A4B0A4C022A18BF234600F01F00D6
:1055D00049B103F58053012282401A6010BD134681
:1055E000F4E7044BF2E703F50053F4E7688000505A
:1055F00060820050648000501FB50021B0F5807FAC
:105600000446019100F0068100F29D80612800F2BD
:1056100095801F2805D8002840F0928026F0F8FFDA
:10562000DCE0A0F12004412C00F28A8001A353F8B1
:1056300024F000BF1D560100E15701001D56010076
:10564000E157010001580100015801000158010013
:1056500001580100E1570100E1570100BB5701006B
:105660007557010037580100415801007557010076
:10567000E1570100E1570100E157010041570100E6
:1056800041570100415701004157010041570100B6
:10569000415701000B58010097570100E1570100E5
:1056A000E1570100E1570100555801004B58010036
:1056B000E1570100415701004157010041570100E6
:1056C0004157010041570100415701004157010076
:1056D0004157010041570100415701004157010066
:1056E00041570100415701001D560100415701007B
:1056F0001D5601001D5601001D56010001580100F4
:105700004157010041570100415701004157010035
:105710004157010041570100415701004157010025
:105720004157010041570100415701004157010015
:10573000415701001D5601001D56010080284BD025
:10574000019804B010BDB0F5A06F5ED028D8B0F5B8
:10575000607F50D019D8B0F5007F4CD004D8B0F598
:10576000C07F3FF45BAFEBE7B0F5207F38D0B0F5FA
:10577000407FE5D126F04CFF02464FF42070FFF742
:10578000CBFEB2FBF0F2520833E0B0F5806F37D0B9
:10579000B0F5906FD4D1002101A8FFF7EFFCCFE75F
:1057A000B0F5E06F51D00DD8B0F5C06F43D0B0F573
:1057B000D06F45D0B0F5B06FC2D1002101A8FFF77E
:1057C0001BFEBDE7B0F5F06F44D0B0F5086FB7D160
:1057D00001A8FFF707FDB3E726F0FAFE0190AFE757
:1057E00026F016FF02464FF42070FFF795FEB2FB3D
:1057F000F0F20192A4E726F0EBFE02462046F4E721
:10580000002101A8FFF712FD9AE7002101A8FFF788
:1058100065FE95E74FF0E02302911B695B0705D514
:1058200026F0F6FE0290029B019389E703A902A8E5
:10583000FFF720FDF7E7002101A8FFF71BFD7FE739
:10584000002101A8FFF71EFE7AE7002101A8FFF75B
:10585000F5FD75E7002101A8FFF730FD70E700BFF7
:1058600008B58020FFF7C8FE034B98429EBF4FF457
:105870008032024B1A6708BD005A620200A0005035
:105880001FB503460020B3F5807F01906FD027D865
:10589000382B00F082800BD8243B092B0FD8092B22
:1058A0000DD8DFE803F05F5F5F5F0C0C5A0C3675B4
:1058B000522B57D007D83D2B3AD03E2B72D00198AF
:1058C00005B05DF804FB802BF9D1394B1B6F03F059
:1058D0000703013B032BF2D8DFE803F03D36393BE9
:1058E000B3F5D06F54D019D8B3F5A06F55D00AD8FE
:1058F000B3F5806F36D0B3F5906FE0D1002001A9E9
:10590000FFF73CFCDBE7B3F5B06F26D0B3F5C06F13
:10591000D5D1002001A9FFF7ADFCD0E7B3F5006FAA
:10592000ECD00AD8B3F5E06F3CD0B3F5F06FC6D138
:10593000002001A9FFF7C2FCC1E7B3F5086FBED193
:1059400001A9FFF74FFCBAE705230193B7E703234B
:10595000FBE70723F9E70223F7E7002001A9FFF798
:105960004BFDACE7002001A9FFF760FCA7E74FF073
:10597000E02302901B695B0705D526F049FE0C2346
:105980000393039BE1E703A902A8FFF773FCF8E781
:10599000002001A9FFF776FD91E7002001A9FFF79C
:1059A0009DFD8CE7002001A9FFF748FD87E700BFB8
:1059B000008000504FF48032074B0849586E03F5C1
:1059C00080535A660B6A23F001030B62C3035CBF6A
:1059D000034B5A66704700BF0080005000C007505C
:1059E00000A0005008B5FFF74BFF082811D0093878
:1059F000012802D94FF6FF7008BD4FF40012064B84
:105A00005A6603F5D8335B6ADB07F3D54FF4FA70B7
:105A1000F2E7024B1888EFE700900050302C00208E
:105A200008B5FFF72DFF03280ABF024B4FF6FF70A2
:105A3000188808BD2E2C0020F8B504468020FFF7FA
:105A40001FFF032800F087804FF40022424B022101
:105A50005A6645F60E03414AC2F88030404B9962BF
:105A6000012103F580539962936DD903FCD4D4E9E5
:105A700000131B0543EA0163E17B94F820500B43BC
:105A8000217BE77E43EA0143617B6D0143EA0133F9
:105A9000A17B43EA811313619169D4E904031B06D6
:105AA00043EA806301F000410B43A17E94F8230098
:105AB0000B43217E43EA0143617E43EA0123936164
:105AC000136AE66923F00D0394F8221043EA870372
:105AD000002E2DD11362966A94F8213045EA031303
:105AE00026F033052B4343F0010393621D4D1B4BFE
:105AF0009A6D35EA0202FBD10222194DAA621A659B
:105B00009A6D5200FCD41A69A56822F4700242EA28
:105B100005521A614FF00042114B9A6119B90222E5
:105B200003F580539A6278B901220F4B9A620BE019
:105B3000334343F008031362936A23F033030343B0
:105B40002B4343EA4103936294F824301BB1034B87
:105B5000064AC3F88020F8BD0090005000C00050F5
:105B600000D000500300014000E00050F1A7FFFF0B
:105B7000014B93F900007047E5260020F0B5D0E90D
:105B800001434FF480061A4A4178057856664FF46F
:105B9000D156022702F5B8325662164E4F29776069
:105BA0004FF0010728BF4F2106F580567760166930
:105BB000F603FCD441EA052151611B01417B43EA14
:105BC00004230B43017B43EA41039360C37B817B46
:105BD0001B0143EA4113417C0B43017C43EA41032F
:105BE0005360837C13B16FF4D1535362F0BD00BF97
:105BF0000090005000100250014B1880704700BF09
:105C0000302C0020014B1880704700BF2E2C002044
:105C10004FF4001208B5184B5A660223174A536016
:105C2000936813F48033FBD1012822D126F00AFDBA
:105C3000134B984215D003F5122303F5F8639842ED
:105C400013D0104B00EB8002400AB3FBF0F3520A72
:105C50000A49CA620B6301234B620022074B5A6058
:105C600008BD45F67A13084AF2E745F61A03074AD3
:105C7000EEE75362F1E700BF009000500040025091
:105C800000F0490264666666D8B80500BBCF05001F
:105C9000B0F5207F10B50C4642D008D8B0F5007F93
:105CA00033D003D888B1B0F5C07F0ED010BDB0F5A9
:105CB000607FFBD11F4A4C1ED2F8803023F03003A6
:105CC00043EA0413C2F88030F0E71BF06EF81BF0D3
:105CD0007AF84FF48031184B164A1967136F013C5C
:105CE00023F4704343EA0433136726F091FC04461F
:105CF000FFF738FAC0F1020120461BF05EF800F011
:105D000035F8BDE81040FFF7ABBD0A4A4C1ED2F88B
:105D1000903023F0F85343EA0463C2F89030C5E7AB
:105D2000044A4C1E136F23F4806343EA84231367F1
:105D3000BCE700BF008000500090005008B5012172
:105D4000022000F085F94FF42070FFF7E5FB054BCA
:105D500018701BF02AF81BF036F84FF48032024B13
:105D60001A6708BDE42600200090005008B54FF4E3
:105D7000C070FFF741FCBDE808400449884294BF69
:105D8000012102214FF42070FFF782BF80F0FA0258
:105D900038B5044626F03CFC0546FFF7E3F9C0F1B0
:105DA000020128461BF009F80121002000F090F9BB
:105DB0002CB1FFF7DBFFBDE83840FFF751BD034BC7
:105DC0004FF420701978FFF763FFF4E7E426002012
:105DD0004FF4C02270B50546FFF794FA314B0446E4
:105DE0005A6603F598335A68012A04D12E494A604D
:105DF0009A699207FCD18020FFF742FD052807D160
:105E00001AF0D3FF1AF0DFFF4FF48032254B1A67E8
:105E1000264B24F040749D4230D0254B9D4230D01B
:105E200026F0D0FB8542064603D90121284600F022
:105E30004FF9204BDA6812F0060FFBD199689C608D
:105E40009A68624012F4F81F1ED12846FDF712FA34
:105E50008020FFF715FD05280DD126F0D9FB04465B
:105E6000FFF780F9C0F1020120461AF0A6FFFFF704
:105E70007DFFFFF7F5FCAE420CD270BD44F000741C
:105E8000CEE744F08074CBE780209960FFF7F8FC00
:105E9000052805D0BDE870400121002000F018B9A8
:105EA0003546DAE70090005000E0015040420F0014
:105EB00080841E000000015010B5224B70B94FF4D1
:105EC0000031214A1860516602F598325268012A61
:105ED00003D11E4AD2F800211A6010BD1B68002BA6
:105EE000FBD01B4A5268012AF7D0184A8020C2F81A
:105EF0000031FFF7C5FC05281FD14FF4C070FFF734
:105F00000BFB0128044604D102214FF4C070FFF7B7
:105F1000BFFE07220F4B1A610122A3F580535A607E
:105F20000B4A1369DB07FCD5012CD6D12146BDE80D
:105F300010404FF4C070FFF7ABBE0122064B5A6011
:105F4000CBE700BF8C18002000900050008000506C
:105F500000C0015000E0015000D00150044A4178D7
:105F6000536F23F4407343EA01235367704700BF24
:105F70000040005010B5044610B10020FFF79CFF10
:105F8000124A136943F00403136127F0BFF81AF0B3
:105F90001FFF0F4B5B6E5B0142BF0E4B0E4AC3F8F7
:105FA000202427F044FC27F057FE27F03BFC1AF092
:105FB00010FF02F0DFFD1CB9BDE8104026F028BB41
:105FC0000120BDE81040FFF777BF00BF00ED00E003
:105FD0000080005000E003500000FF0F10B50446A1
:105FE00010B10020FFF768FF104A136943F0040363
:105FF00013610F4B5B6E5B0142BF0E4B0E4AC3F841
:10600000202427F083F827F012FC27F025FE27F044
:1060100009FC02F0AFFD1CB9BDE8104026F0F8BA4B
:106020000120BDE81040FFF747BF00BF00ED00E0D2
:106030000080005000E003500000FF0F034A017988
:10604000D36E23F030030B43D366704700400050FB
:10605000F8B504461C4BD3F88420D106FBD4D3F802
:106060008430C3F381139C422CD026F0B1FA012C6A
:10607000064602D121461AF0A0FE27F0D8FB4FF0C9
:106080000072124B07465A6620461AF0A9FE4FF4DA
:1060900080630D4D621E93402B676B6E9A0103D493
:1060A000D5F884309B060AD5384627F0BBFB022C76
:1060B00008D13046BDE8F84000211AF07EBED5F880
:1060C0008430EAE7F8BD00BF004000500060005097
:1060D00010B50C4608B926F07BFA074B21461B7811
:1060E0003BB1064B984204D80120BDE81040FFF7B1
:1060F000AFBF0220F9E700BFE6260020005A620287
:106100000278034B012100201A70FFF7E1BF00BFA6
:10611000E62600204FF0004238B5264B26495A6645
:1061200001224A604AF6CD3103F50B235D6C1964F8
:10613000154030BB9968C9070BD4002401221F4BBE
:106140005A6015B11E4B1F4A1A6422F02CFE2046DD
:1061500038BD1A498A601C4AD96ACC0705D49042D6
:1061600001D10724EAE70130F6E79042E5D1F8E7EC
:106170000132DC6A14F0080406D08A42F8D1072400
:10618000DFE700221049F4E78A42F8D020220B4BC7
:106190000B495A620122A3F580539A6023460A4AAA
:1061A000486A800603D49342E9D00133F8E793426A
:1061B000C7D1E4E70090005000500950006009503A
:1061C000004009503254FFFF40420F004FF00042A0
:1061D00038B5174B174C5A66012203F50C235A6049
:1061E0004AF6CD33656C2364437893401343124AD7
:1061F000D363C3788178A2689B0043EA011322F03D
:1062000074021343A3600279837943EA0223236172
:106210004279C37943EA022363610078FFF77AFF8A
:10622000EB0744BF054B236422F0BDFD012038BDC0
:106230000090005000400950004000503254FFFFD1
:10624000072A2DE9F041154698464FF0030401F066
:1062500003072DD89600B44000FA06F221461C48E8
:106260001AF0BFFD21461B4807FA06F21AF0B9FDE5
:10627000194B1A499DF81800B8F1000F18BF1946BC
:10628000012303FA05F50D60154B1649002818BFC8
:106290000B461D60144B9DF81C00C3F820541031B0
:1062A00003F22443002818BF0B461D60BDE8F081AF
:1062B000A2F10806B600B44000FA06F221460B48E7
:1062C0001AF08FFD21460A4807FA06F2CEE700BF12
:1062D00000C4035008C4035010D4035010E403500A
:1062E00014E4035014D4035000E0035004C40350DA
:1062F0000CC40350F8B504460D461F4616464AB175
:1063000001238B403021184A01FB0022F7B141F2F2
:106310001001535004EB4403072D4FF00F014FEAD7
:10632000031316D8A80006FA00F281400F4818445B
:106330001AF057FD4EB9012330210B4AAB4001FB47
:10634000042277B141F210015350F8BD42F210011E
:10635000DFE7A5F10800800006FA00F2814004485A
:10636000E5E742F21001EFE700C0035004C003501C
:106370000CC0035010B5152001F064FC0024FF226E
:10638000064B21465C6520209A625C60FFF714F999
:106390002146BDE810402120FFF70EB9000004504F
:1063A000044A054B002908BF1346012282401A60A7
:1063B000704700BF401004504020045010B5012128
:1063C00004462020FFF7F8F801212120FFF7F4F818
:1063D0000122114B15205A60227812069A606178CA
:1063E000A27842EA01429A61FF229A6200229A63ED
:1063F0001A644FF000425A654FF0FF3203F5005324
:106400001A6501F04DFC1520E1781AF0D7FDBDE8C2
:106410001040152001F028BC00000450F8B50125FB
:10642000C3B2DFF88CC0D1F800E09D408F7ACB7A00
:106430000C46097BCCF850500CF5005C4CF820E081
:106440004FF0300E184E1B050EFB006094F80DC087
:1064500043EA074343EA415322F00302C0F860C015
:10646000C365026727F0ECF9104B5D65237A13B121
:10647000336C2B433364637A13B1B36B2B43B36335
:106480002279A37943EA0243094A93616179E37966
:1064900043EA014305498B61034B55639D64BDE8A5
:1064A000F84027F0C8B900BF0000045000100450A5
:1064B0000020045010B50124C0B2844027F0C0F978
:1064C000044B5A6D22EA04025A659C62BDE81040F2
:1064D00027F0B1B90000045010B50124C0B28440C7
:1064E00027F0AEF9074BDA6A224208D15B6B9C4376
:1064F0000CBF0124002427F09EF9204610BD002483
:10650000F9E700BF0000045070B5054627F098F980
:106510003022084B5E6B02FB05335C6E27F08BF973
:106520000123EDB2AB4033420ABFC4F30A1000208E
:10653000013070BD000004504FF40032054B9A66E4
:1065400041F6713203F51C33DA63012203F500537F
:10655000DA6070470090005041F671320121064B1D
:10656000DA6303F50052D1600022DA634FF400329F
:10657000A3F518339A66704700000350CB784A7829
:1065800010B55B010C7843EA82030A79234343EA9E
:1065900002130C22424302F1B0421363012C02BFEA
:1065A0008A78024B43F8202010BD00BFE8800350DA
:1065B00008B54FF0B0435A686AB958B15B680BB17F
:1065C0001AF01EFC01210D4B59601AF019FC4FF016
:1065D000B043D96008BD5B680BB11AF011FC00280C
:1065E000F0D11AF00DFC4FF0B0430222DA601AF03D
:1065F00007FC0122024B5A60ECE700BF0010005874
:10660000002000584FF0B0414B6810B50BB11AF0A4
:10661000F7FB01220B4BC4785A608378934043EA1E
:10662000840344782343047943EA0413447943EA16
:10663000C4038B60044B5A600378C3F10203CB6040
:1066400010BD00BF00200058001000584FF48032E9
:10665000064B5A6603F5E6235B69C3F38512827025
:1066600003F03F021B0B4270037070470090005014
:10667000014B986CD96C70470080E00F024B186892
:10668000C0F30740704700BF0080E00F0120034BBC
:106690009B680A3303F01F03984070470080E00FA7
:1066A00070B5054616461C4621B94FF42070FEF71A
:1066B000A3FF0146402C1BD003D8DCB1202C1BD0FB
:1066C00070BD602CFCD1042303FB06F2530803EBDE
:1066D0004113B3FBF2F3094A203B02EAC303AA6861
:1066E00022F06002AA60AA681443AC60EB61E7E79D
:1066F0000623E9E71023E7E70823E5E7F8FF7F0033
:10670000012200F580535A6040F6AA6341F2050267
:10671000436100230B498360C365C26000F50052EA
:106720000361C361C364916407498365884203D1EF
:1067300003650023436502E004498842F8D0012341
:1067400053607047FFFF010000C005500000065075
:1067500070B50D46FFF7D4FF012300F58056736036
:10676000AB7C04461BB1836843F080438360EB7CC1
:106770005BB1354A2B7D944245D1A2F51032C2F867
:106780008C31E36D43F08003E3652A8A6B7B2046FE
:106790001343EA891343E3602B7BD5E90112FFF72A
:1067A0007FFF6B7D1BB1A36843F48033A360AB7D97
:1067B0001BB1A36843F40043A360EB7D2A7E1B0753
:1067C000120502F4E00203F0E0431343A365697E7F
:1067D0001D4A8B1E012B1D4B1FD894421BD002F566
:1067E000804294420CBF01224FF0FF3203EB421370
:1067F000022041F21C620329985020D10423F36542
:106800002B78636170BD124A944204BFA2F5203216
:10681000C2F89C31B5E70022E8E794420DD00C4A5B
:1068200094420CBF01224FF0FF3203EB42130220CF
:1068300042F21C6201299850DFE70022F5E70422AA
:1068400004F50053DA65DBE700C0055000C00350D3
:1068500000000650034BD3F82424D3F82004104042
:10686000704700BF00C003502DE9F8431E4B05469A
:10687000D3F810334B1E0E2B0E46174690F800909F
:1068800044781DD909B34FF000082846D7B126F047
:10689000DDFF09EB4903072C4FF00F014FEA03130B
:1068A00015D8A400114808FA04F2A14018441AF0BF
:1068B000C3FABEB928468FB1BDE8F84326F0C6BF7B
:1068C0008846E2E71AF0C7FAE3E78846E1E7083CC2
:1068D000A400074808FA04F2A140E7E7BDE8F8433E
:1068E0001AF0B9BABDE8F88300C0035004C00350E1
:1068F0000CC003504FF48032084B5A6603F5E62370
:106900005B691A0B027003F03F0242704FF6FF7290
:10691000C3F3851342808380704700BF009000500E
:10692000014B986CD96C70470080E00F70B504463D
:1069300022F007FB064630B90FCC044D0FC594E892
:10694000030085E80300304670BD00BF90180020AA
:1069500047F6FF739A42F0B56FD002296FD8394BD2
:106960005B5C012B6BD8384DDF0005EBC30415F8D9
:106970003330A178012B13D10025E078401AA842CA
:1069800002D80844C0B2F0BD431B6668A0EB5303B5
:1069900036F913609642D4BF1D4603F1FF30EEE78F
:1069A00060680028EFD0B0F90040944204DBB0F9F1
:1069B00002409442B8BF144683883D44FF2B19BF60
:1069C000C8224FF0280CB0F90620B0F908C0A2EB9D
:1069D00004030CBF0126002693FBFCF333446E78BE
:1069E0001BB29E4201DD002B01DA731E1BB24FF475
:1069F0007A7C01339BB2071D5D1E2DB24FEAC50E96
:106A000000EBC505EA88AD689E4214FB025222EAFB
:106A1000E27202F15C02B2FBFCF204DD37F83350A3
:106A200001339542E8D200EB0E039888904228BFCC
:106A30001046884238BF0846A4E7FF20A3E700209D
:106A4000A1E700BF87E10300901800200229F0B5FC
:106A500055D82C4B585C012851D82B4C04EBC00165
:106A600014F830004B6801280FD1C8788C78904218
:106A700094BFC4EB0001C4EB0201001BCAB2824206
:106A8000C8BF002233F91200F0BD002B37D0887840
:106A9000904202D3B3F90200F6E7CC78B3F90000D4
:106AA0009442F1D94C789988013CA1F1FF067142DA
:106AB00003F10405E4B2714103F10C07CEB2B44214
:106AC00016D805EBC1014FF47A756A43B1F902405B
:106AD0004968521A04EBD47102EB610292FBF4F2A2
:106AE0009042D1DBB3F902009042CDDC10B2CBE78B
:106AF00037F831C04E1C9445E3D33146DEE70348F6
:106B0000C2E700BF87E10300901800200080FFFF6C
:106B100008B50448FFF70AFFBDE80840012022F04D
:106B200014BA00BFB4E7030000487047322C0020BD
:106B30007FB50222084B0949CDE901234FF00073CC
:106B4000CDE90313052301A94FF0FF30059322F08F
:106B500045FA07B05DF804FB006A18000002040063
:106B600006289ABF014B185C002070478AE1030099
:106B70004FF40052034B00209A660322C3F86022B0
:106B8000704700BF009000504FF40052034B0020AC
:106B90009A660322C3F86022704700BF00A000502D
:106BA000012300F01F02A0F506200949A0F550605E
:106BB0004009934051F820201A4341F8202005490C
:106BC00051F8202022EA030241F82020704700BF3C
:106BD000C0180020AC1800200121A0F506230E4AA1
:106BE000A3F550635B0900F01F00814052F82300B9
:106BF000014342F823100949D1E900300344886871
:106C00000344C868096903445B1802BFC2E9003342
:106C1000C2E9023313617047AC180020C01800208D
:106C20002DE9F04FA9B003921D4604460822339E79
:106C3000CDE90401414021FA02F34B40980702F1EB
:106C4000080218BF9B00202A1C44F4D18123B4FB06
:106C5000F3F303EBC313E41A734B04F506241B7818
:106C600004F55064002B3ED1FEF786F9074620B1AB
:106C70006FF0910029B0BDE8F08F0146402208A8CE
:106C800022F05DFF4022394618A822F058FFDFF8B5
:106C9000B081DFF8B091C3460BF10F0ACDF800A028
:106CA000102208A95B46D9F8000019F086FE0022E0
:106CB000014608F1100808AF914246D1CDF800A076
:106CC0005B461022D9F8000018A919F07FFE4FF09A
:106CD000000A834618AFD34541D1544B9845DAD1C9
:106CE0000122514B1A704FF0810A4FF00008DFF873
:106CF00058B1A4F50627A7F550635B095BF823207C
:106D000004F01F01CA40D2073DD4494A52F823304B
:106D1000CB40DB072AD5B8F1000F08BFA04681237E
:106D2000A7F6FF47B7FBF3F303EBC313FF1A07F50F
:106D30000624BAF1010A04F55064DAD1039BBBB111
:106D4000B8F1000F14D0444619E057F8040BCDE910
:106D50000612FFF725FF079A06990132ACE757F8AC
:106D6000040BFFF739FF0AF1010AB4E7039B13B9DB
:106D70006FF08B007EE7B8F1000F18BF4446349BDC
:106D800000201C6076E7329B13B10023329A136017
:106D90000EB1002333601023DFF8A89000932A4639
:106DA00000232146D9F80000FDF7C0FF60BB3299EF
:106DB0002A68204BC9B99A4206D02146D9F800006A
:106DC000FEF736F80028D3D1D5E90223DDE9041017
:106DD000834208BF8A42A2D1039B002BCFD06B68AD
:106DE000012BCCD16FF0840044E7102032999A42F5
:106DF0000860E2D1002EE7D033462146D9F80000E2
:106E000018AAFDF7D9FF40B10B4B9842D5D06328A3
:106E1000D3D00A4B9842D7D02AE7329A3368126807
:106E20009B1A3360D0E700BFE726002000710800FE
:106E3000AC180020105D175EFFDF00F0FEDF00F0F1
:106E4000006D0800402A0020C01800202DE9F04FF6
:106E500087B08246894698461646DDF840B02AB18A
:106E6000002B4FD040F26C739A424ED8BBF1010F09
:106E70004ED8002406F110073946012005941AF077
:106E8000FCFB0546002846D021463A4622F057FE34
:106E900005ABCDE9014300942B46012250464946FB
:106EA000FFF7BEFE044680B110F18C0F08BF6FF0F3
:106EB0008D043A460021284622F041FE28461AF069
:106EC000BEFB204607B0BDE8F08F144BC5E902A910
:106ED0002B60C5F804B02EB13246414605F11000D2
:106EE00022F095FD059E0E483B462A463146006835
:106EF000FDF798FE18B93046FFF752FED9E76FF05C
:106F00009104D6E76FF08604DBE76FF09104D8E7D1
:106F10006FF08504D5E76FF08C04D2E7105D175E43
:106F2000402A00202DE9F0438DB08146DDE9147838
:106F30000E4615461C469BB1B8F1000F05D16FF007
:106F4000860630460DB0BDE8F083002FF7D0B7F1CC
:106F5000005FF4D3C3F1005303F500439F42EED822
:106F60001022002108A822F0EAFD002207AB0293BC
:106F700005AB019306AB31460093484608ABCDE91B
:106F80000522FFF74DFE06460028DAD1059BA4B185
:106F9000AB4215D853EA0504D1D1069B0B48C8F87B
:106FA000004000943A46079900682B44FDF7BEFE66
:106FB000002818BF6FF09106C3E7AB42EDD2BEE7E1
:106FC0005B1B9C4228BF1C46E7E700BF402A00200D
:106FD00030B58DB00C4605461022002108A822F0DD
:106FE000AEFD002207AB029305AB019306AB214631
:106FF0000093284608ABCDE90522FFF711FE0446B1
:10700000D8B9099B012B1BD0079D104B2946186846
:10701000FDF70EFFB8B90122A5F506230C49A3F52B
:1070200050635B0905F01F00824051F82300424085
:10703000284641F82320FFF7CFFD20460DB030BD94
:107040006FF08404F9E76FF09104F6E7402A00201E
:10705000C01800202DE9F04F89B007460E4601F018
:10706000EFFEC00709D4042401201AF031FF80B3D9
:10707000013CF9D16FF0920028E0102200210DEBC5
:10708000020022F05CFD04A801F03CFF049B002BF1
:10709000E9D0059B002BE6D0069B002BE3D0079B95
:1070A000002BE0D00025DFF8808008F10409B5420C
:1070B00019D34FF48A7401F0BDFE00F00E03062BC5
:1070C0002DD1C30501D501F0E7FE002009B0BDE8D0
:1070D000F08F01F0AFFE10F00E03FAD0022BF8D0C3
:1070E0004105DFD5C4E701F09FFEA6EB050A840049
:1070F000544528BF544699E8030000238DE8030057
:10710000CDE9054307EB050BCDF810B0029404AAB6
:10711000D8F8003007CA1AF0D4FD2544C7E724FA8E
:1071200003F3DA07A6D5C6E7B8E103002DE9F0437B
:107130008BB01746DDE91545DDE913269C46DDE9F0
:107140001738894621B96FF086000BB0BDE8F0838F
:10715000002FF8D00EB9002CF5D1129909B9002AE8
:10716000F1D10DB9002BEED1B8F1000FEBD0244ACC
:10717000944541D10288B2F5105F3DD14288B7EB0A
:10718000D20FE0D322F04001802902D0B2F5807FF7
:10719000D9D16CB3AE421CD23219954219D29C425D
:1071A000D1D831462246284622F0AFFC2E4614F0B4
:1071B0000F03C8D1CDE90197CDE90336CDE90543E9
:1071C000CDE907540993FFF7D3FC38B16FF0920073
:1071D000BBE79C42EBD96FF08900B6E707AA04A988
:1071E00001A801F053FF0546FFF7CEFC0543EDD1A2
:1071F0000020C8F80040A8E76FF08500A5E700BFB1
:10720000004440042DE9F04FA9B0834617469A4642
:107210000E46DDF8C890DDF8D88029B96FF08603F6
:10722000184629B0BDE8F08F002AF7D0B9F1000F59
:10723000F4D0349B002BF1D0B8F1000FEED0002435
:10724000424B0CAD93E8070085E807003C2221463D
:1072500019A8189422F073FC3388728803F4E04074
:10726000B0F5804FDAD03A4E3A480BEA060646F0BF
:107270001066864263D1B2F5807F60D147F2121268
:1072800093425CD10620344ABAF11F0FD3680E94A2
:107290000B931369126800FB03F3CDE90C23BDD9EE
:1072A000339B402BBAD9359B1F2B4BD909F10102D7
:1072B00020261292402299F800300F97042B18AF25
:1072C000CDE91324CDE91572109611941794A5D128
:1072D000FFF74EFC03460028A2D10B9B15AACDE96F
:1072E000086305AB07CA83E8070002AB12AA07CA06
:1072F00083E80700DDE910018DE803000F9B95E8A6
:10730000070001F09DFF0546FFF73EFC55EA00032C
:1073100084D13D46349A20AE2C4603CCB442106052
:107320005160254602F10802F6D100221146B954F7
:107330000132402AFBD12022C8F8002070E76FF00C
:1073400085036DE76FF089036AE700BFE4E203009D
:107350000000FFF600000209F8E20300F0B50E4657
:107360001D468BB0002853D0002951D0002A4FD0A1
:10737000002B4DD0048804F44F43B3F5824F03D063
:107380006FF085000BB0F0BDE3B224F0FF04B4F55C
:10739000E24FB0F802C0F3D1122B01D0172BEFD17E
:1073A0000CF10701B2EBD10F4FEAD10733D31D4ADD
:1073B00004ACBCF5807F07CA84E80700E0D1122B3B
:1073C00007D1194B1A691B681344CDE90432002315
:1073D00006930023CDE907670993FFF7C9FB00284F
:1073E000D0D1124A02AB92E8030083E803000AAB53
:1073F00013E903008DE80300079B94E807001AF0E7
:10740000E5FB0446FFF7C0FB204307D12F60B9E737
:107410006FF08600B6E76FF08900B3E76FF0920077
:10742000B0E700BFE4E20300F8E20300B0E10300CC
:107430002DE9F0438FB01D46DDE916C600285CD06B
:1074400000295AD0002A58D0002B56D0BCF1000F8A
:1074500053D0002E51D0038803F44F44B4F5824F2B
:1074600051D1DCB223F0FF03B3F5824F40884AD0FC
:10747000122C01D0172C46D1C31DB2EBD30F4FEA0B
:10748000D3083AD34FEA4802571C674538D8B0F5BD
:10749000807F38D1122C18BF4FF000094FF0000345
:1074A00008BF1C4CCDE9081805F1010114BF4C467A
:1074B000D4F80C90CDE90B120A930D93FFF758FB0B
:1074C000C0B9CDE9058902AB08AA07CA83E807005D
:1074D0000EAB13E903008DE803000B9B94E8070053
:1074E0001AF093FB0446FFF74FFB20430ED1042311
:1074F0002B7037600FB0BDE8F0836FF08600F9E7BE
:107500006FF08900F6E76FF08500F3E76FF0920007
:10751000F0E700BFF8E203002DE9F04389B00E4622
:1075200015461F46DDF8488020B96FF0860009B087
:10753000BDE8F0830029F8D0002AF6D0B8F1000F9A
:10754000F3D0038803F44F42B2F5824F02D06FF0BC
:107550008500ECE7DAB2122A01D0172AF7D123F01E
:10756000FF03B3F5E24F41D14488C8F8004044B965
:10757000EB00B3F5807FC8F80030E8D1122A0DD1B6
:1075800008E0E31DB5EBD30FCFD1B4F5807FDED19A
:10759000122A29D1354B1C681B691C44002319464B
:1075A00070192C4414F801CD10F8012D1143B2EBE1
:1075B0000C020CBF4FF0FF3C4FF0000C86420CEA6F
:1075C000030343EA0203EDD10029AED0002BACDA6D
:1075D000109B9D4246D82A463146384622F017FA7B
:1075E000119B00201D60A2E70024D7E73378042B0D
:1075F0009BD16B1EDB005B08B3F5807FC8F80030C1
:10760000A5D1122A06F1010318BF4FF000094FF06F
:10761000400205934FF000030ABF144C4C46D4F8C7
:107620000C90CDE90623FFF7A3FA00287FF47FAF83
:10763000CDF80C90D8F800300733DB08029308AB84
:1076400013E903008DE80300059B94E807001AF096
:1076500089FB0446FFF798FA00287FF468AF002CF6
:10766000B6D062E76FF0890061E700BFF8E203007F
:107670000388B3F5105F0ED14388DB08103B102B55
:107680000CD8084A22FA03F313F0010F14BF0020AC
:107690006FF0860070476FF0850070476FF08600CE
:1076A000704700BF010101002DE9F04F8FB0154672
:1076B000DDE918A91E46DDF868801C9F09B300B3F8
:1076C000B8F1000F1DD0E7B1BAF1000F02D1B9F146
:1076D000000F16D1274B26F47E129A42B0F802B062
:1076E00044D1FFF7C5FF0446A8BBB5EBDB0F4FEA5B
:1076F000DB0306D316F47C1FC6F3054504D0102D1A
:1077000003D96FF0860426E010251B9A95422AD8EB
:10771000CDE9011300231022CDE905930DF12809CD
:10772000CDE9033ACDE90823CDF81C90FFF720FA04
:10773000044680B907AA04A901A801F0BBFC0646CB
:10774000FFF722FA044656B958B92A464946404638
:1077500022F05DF93D6020460FB0BDE8F08F6FF07C
:1077600092040025F6E76FF08904F4E76FF08504D2
:10777000F1E700BF0002C0032DE9F041069F0C466F
:107780001646054610B309B302B9FBB96288B3EBDC
:10779000D20F4FEAD20819D34C220021284622F0FA
:1077A000CEF90D4B27F47E129A4212D12046FFF7F4
:1077B0005FFF044638B942463146281D22F027F9BA
:1077C000C5F824802F602046BDE8F0816FF0860464
:1077D000F9E76FF08504F6E70002C0032DE9F041F8
:1077E0000E4614460546002840D000293ED092B1EE
:1077F0000368214823F47E1383423AD1AF6BF7B17B
:10780000C7F1100807F128004245284406D2274452
:1078100022F0FDF8AF630020BDE8F081424622F07F
:10782000F6F81022103C3C19AA63F4D0284605F162
:10783000280119F076FB0028EED14644A863102CED
:107840000CD9671E27F00F073A463146284619F033
:1078500068FB0028E0D1E41BDDD03E4422463146DF
:1078600005F1280022F0D3F8AC63D4E76FF086006E
:10787000D2E76FF08800CFE70002C0032DE9F043A4
:1078800088461F4605468BB070B169B163B1036885
:10789000234923F47E1088423ED113F47C1FC3F3A6
:1078A000054604D0102E03D96FF086042AE0102676
:1078B00096422BD8FFF75CF9044618BBAB6B05F179
:1078C0002802CDE901236B6A2A1DCDE90423102388
:1078D000CDE9083007AB1A460390069005F13C0944
:1078E00001A904A8CDF81C9001F008FC0546FFF79B
:1078F0004BF904466DB928B932464946404622F054
:1079000086F83E6020460BB0BDE8F0836FF0890436
:10791000F8E76FF09204F5E76FF08504F2E700BF37
:107920000002C00370B504460D4625F089FF1C2CEB
:10793000064608D80C2C0AD8082C2CD013D8BB2308
:10794000E340DB0718D4002321242B801EE0012311
:10795000174AA340134224D1122C26D00D2CF2D169
:107960004FF4F06005E0092C18D00C2CEBD14FF44B
:10797000C060FEF737F802E08020FEF751F84FF6BE
:10798000FF7398420CBF0E2400242880304625F057
:1079900052FF204670BD4FF48060EEE74FF49060D8
:1079A000EBE700230F242B80F0E74FF4E060E0E7E3
:1079B00000805110B8B1036813F4E07F03F03F007A
:1079C000C3F382120AD0012A0DD1084B41B103F54D
:1079D0008053012282401A6000207047044BF5E773
:1079E00003F50053F5E70E20704700BF6880005094
:1079F0006480005030B58BB06C466C4D0FCD0FC419
:107A00002B686B4A2360FF238DF80130D2F84C318C
:107A100013F4802340F0BE80D2F850218DF801305D
:107A20009DF801306C46FF2B08BF19236846614D55
:107A30008DF80130FEF7A2F83220FEF7DDF80FCD09
:107A40000FC40FCD0FC495E8030084E80300584B22
:107A5000D3F84C21110340F18880A3F5FE431C8824
:107A6000B4F5807F28BF8C248DF81940FEF780F88C
:107A7000044484F3080450488DF81840FBF700FCD8
:107A80006846FDF7D9FF3220FEF7BCF84B48FEF7F9
:107A90009FF94B4C01213520FDF78EFD0020FEF7AC
:107AA000B7F8FEF74BF9236F002023F0070343F0EC
:107AB00003032367FEF76CF9236F23F474432367F2
:107AC000404BD3F8FC20D20153D4D4F88030C4F812
:107AD00080303B4BD3F8202122F0030242F0020217
